{
  "_format": "hh-sol-artifact-1",
  "contractName": "SecretDot",
  "sourceName": "contracts/SecretDot.sol",
  "abi": [
    {
      "inputs": [],
      "stateMutability": "nonpayable",
      "type": "constructor"
    },
    {
      "inputs": [],
      "name": "EnforcedPause",
      "type": "error"
    },
    {
      "inputs": [],
      "name": "ExpectedPause",
      "type": "error"
    },
    {
      "inputs": [
        {
          "internalType": "string",
          "name": "hash",
          "type": "string"
        }
      ],
      "name": "InvalidIPFSHashError",
      "type": "error"
    },
    {
      "inputs": [
        {
          "internalType": "uint256",
          "name": "messageIndex",
          "type": "uint256"
        }
      ],
      "name": "MessageExpiredError",
      "type": "error"
    },
    {
      "inputs": [
        {
          "internalType": "address",
          "name": "user",
          "type": "address"
        },
        {
          "internalType": "uint256",
          "name": "messageIndex",
          "type": "uint256"
        }
      ],
      "name": "MessageNotFoundError",
      "type": "error"
    },
    {
      "inputs": [
        {
          "internalType": "address",
          "name": "recipient",
          "type": "address"
        }
      ],
      "name": "MessageReceivingDisabledError",
      "type": "error"
    },
    {
      "inputs": [
        {
          "internalType": "uint256",
          "name": "size",
          "type": "uint256"
        },
        {
          "internalType": "uint256",
          "name": "maxSize",
          "type": "uint256"
        }
      ],
      "name": "MessageTooLargeError",
      "type": "error"
    },
    {
      "inputs": [
        {
          "internalType": "address",
          "name": "owner",
          "type": "address"
        }
      ],
      "name": "OwnableInvalidOwner",
      "type": "error"
    },
    {
      "inputs": [
        {
          "internalType": "address",
          "name": "account",
          "type": "address"
        }
      ],
      "name": "OwnableUnauthorizedAccount",
      "type": "error"
    },
    {
      "inputs": [
        {
          "internalType": "address",
          "name": "user",
          "type": "address"
        }
      ],
      "name": "PubKeyNotFoundError",
      "type": "error"
    },
    {
      "inputs": [
        {
          "internalType": "address",
          "name": "sender",
          "type": "address"
        },
        {
          "internalType": "uint256",
          "name": "cooldownEnd",
          "type": "uint256"
        }
      ],
      "name": "RateLimitExceededError",
      "type": "error"
    },
    {
      "inputs": [],
      "name": "ReentrancyGuardReentrantCall",
      "type": "error"
    },
    {
      "inputs": [
        {
          "internalType": "address",
          "name": "sender",
          "type": "address"
        },
        {
          "internalType": "address",
          "name": "recipient",
          "type": "address"
        }
      ],
      "name": "SenderBlockedError",
      "type": "error"
    },
    {
      "inputs": [
        {
          "internalType": "address",
          "name": "caller",
          "type": "address"
        },
        {
          "internalType": "address",
          "name": "target",
          "type": "address"
        }
      ],
      "name": "UnauthorizedAccessError",
      "type": "error"
    },
    {
      "anonymous": false,
      "inputs": [
        {
          "indexed": true,
          "internalType": "address",
          "name": "user",
          "type": "address"
        },
        {
          "indexed": true,
          "internalType": "uint256",
          "name": "messageIndex",
          "type": "uint256"
        }
      ],
      "name": "MessageDeleted",
      "type": "event"
    },
    {
      "anonymous": false,
      "inputs": [
        {
          "indexed": true,
          "internalType": "address",
          "name": "user",
          "type": "address"
        },
        {
          "indexed": true,
          "internalType": "uint256",
          "name": "messageIndex",
          "type": "uint256"
        }
      ],
      "name": "MessageRead",
      "type": "event"
    },
    {
      "anonymous": false,
      "inputs": [
        {
          "indexed": true,
          "internalType": "address",
          "name": "user",
          "type": "address"
        },
        {
          "indexed": false,
          "internalType": "bool",
          "name": "isEnabled",
          "type": "bool"
        }
      ],
      "name": "MessageReceivingToggled",
      "type": "event"
    },
    {
      "anonymous": false,
      "inputs": [
        {
          "indexed": true,
          "internalType": "address",
          "name": "sender",
          "type": "address"
        },
        {
          "indexed": true,
          "internalType": "address",
          "name": "recipient",
          "type": "address"
        },
        {
          "indexed": false,
          "internalType": "bytes32",
          "name": "ipfsHash",
          "type": "bytes32"
        },
        {
          "indexed": false,
          "internalType": "uint64",
          "name": "expiresAt",
          "type": "uint64"
        }
      ],
      "name": "MessageSent",
      "type": "event"
    },
    {
      "anonymous": false,
      "inputs": [
        {
          "indexed": true,
          "internalType": "address",
          "name": "previousOwner",
          "type": "address"
        },
        {
          "indexed": true,
          "internalType": "address",
          "name": "newOwner",
          "type": "address"
        }
      ],
      "name": "OwnershipTransferred",
      "type": "event"
    },
    {
      "anonymous": false,
      "inputs": [
        {
          "indexed": false,
          "internalType": "address",
          "name": "account",
          "type": "address"
        }
      ],
      "name": "Paused",
      "type": "event"
    },
    {
      "anonymous": false,
      "inputs": [
        {
          "indexed": true,
          "internalType": "address",
          "name": "user",
          "type": "address"
        },
        {
          "indexed": true,
          "internalType": "address",
          "name": "deletedBy",
          "type": "address"
        }
      ],
      "name": "PubKeyDeleted",
      "type": "event"
    },
    {
      "anonymous": false,
      "inputs": [
        {
          "indexed": true,
          "internalType": "address",
          "name": "user",
          "type": "address"
        },
        {
          "indexed": false,
          "internalType": "string",
          "name": "pubKey",
          "type": "string"
        }
      ],
      "name": "PubKeyRegistered",
      "type": "event"
    },
    {
      "anonymous": false,
      "inputs": [
        {
          "indexed": false,
          "internalType": "address",
          "name": "account",
          "type": "address"
        }
      ],
      "name": "Unpaused",
      "type": "event"
    },
    {
      "inputs": [],
      "name": "DEFAULT_MESSAGE_TTL",
      "outputs": [
        {
          "internalType": "uint256",
          "name": "",
          "type": "uint256"
        }
      ],
      "stateMutability": "view",
      "type": "function"
    },
    {
      "inputs": [
        {
          "internalType": "uint256",
          "name": "messageIndex",
          "type": "uint256"
        }
      ],
      "name": "DeleteMessage",
      "outputs": [],
      "stateMutability": "nonpayable",
      "type": "function"
    },
    {
      "inputs": [],
      "name": "DeleteUserPubKey",
      "outputs": [],
      "stateMutability": "nonpayable",
      "type": "function"
    },
    {
      "inputs": [
        {
          "internalType": "address",
          "name": "userAddress",
          "type": "address"
        }
      ],
      "name": "DeleteUserPubKeyAdmin",
      "outputs": [],
      "stateMutability": "nonpayable",
      "type": "function"
    },
    {
      "inputs": [],
      "name": "GetMyMessages",
      "outputs": [
        {
          "components": [
            {
              "internalType": "bytes32",
              "name": "ipfsHash",
              "type": "bytes32"
            },
            {
              "internalType": "address",
              "name": "sender",
              "type": "address"
            },
            {
              "internalType": "uint64",
              "name": "timestamp",
              "type": "uint64"
            },
            {
              "internalType": "uint64",
              "name": "expiresAt",
              "type": "uint64"
            },
            {
              "internalType": "uint8",
              "name": "status",
              "type": "uint8"
            },
            {
              "internalType": "uint8",
              "name": "category",
              "type": "uint8"
            },
            {
              "internalType": "bool",
              "name": "isDeleted",
              "type": "bool"
            }
          ],
          "internalType": "struct ISecretDot.Message[]",
          "name": "",
          "type": "tuple[]"
        }
      ],
      "stateMutability": "view",
      "type": "function"
    },
    {
      "inputs": [],
      "name": "GetMyPubKey",
      "outputs": [
        {
          "internalType": "string",
          "name": "",
          "type": "string"
        }
      ],
      "stateMutability": "view",
      "type": "function"
    },
    {
      "inputs": [
        {
          "internalType": "address",
          "name": "userAddress",
          "type": "address"
        }
      ],
      "name": "GetUserPubKey",
      "outputs": [
        {
          "internalType": "string",
          "name": "",
          "type": "string"
        }
      ],
      "stateMutability": "view",
      "type": "function"
    },
    {
      "inputs": [
        {
          "internalType": "address",
          "name": "userAddress",
          "type": "address"
        }
      ],
      "name": "HasRegisteredPubKey",
      "outputs": [
        {
          "internalType": "bool",
          "name": "",
          "type": "bool"
        }
      ],
      "stateMutability": "view",
      "type": "function"
    },
    {
      "inputs": [],
      "name": "MAX_MESSAGE_SIZE",
      "outputs": [
        {
          "internalType": "uint256",
          "name": "",
          "type": "uint256"
        }
      ],
      "stateMutability": "view",
      "type": "function"
    },
    {
      "inputs": [],
      "name": "MESSAGE_COOLDOWN",
      "outputs": [
        {
          "internalType": "uint256",
          "name": "",
          "type": "uint256"
        }
      ],
      "stateMutability": "view",
      "type": "function"
    },
    {
      "inputs": [
        {
          "internalType": "uint256",
          "name": "messageIndex",
          "type": "uint256"
        }
      ],
      "name": "MarkMessageAsRead",
      "outputs": [],
      "stateMutability": "nonpayable",
      "type": "function"
    },
    {
      "inputs": [
        {
          "internalType": "string",
          "name": "pubkey",
          "type": "string"
        }
      ],
      "name": "RegisterUserPubKey",
      "outputs": [],
      "stateMutability": "nonpayable",
      "type": "function"
    },
    {
      "inputs": [
        {
          "internalType": "address",
          "name": "recipient",
          "type": "address"
        },
        {
          "internalType": "string",
          "name": "ipfsHash",
          "type": "string"
        }
      ],
      "name": "SendMessage",
      "outputs": [],
      "stateMutability": "nonpayable",
      "type": "function"
    },
    {
      "inputs": [
        {
          "internalType": "uint256",
          "name": "limit",
          "type": "uint256"
        }
      ],
      "name": "cleanupExpiredMessages",
      "outputs": [
        {
          "internalType": "uint256",
          "name": "count",
          "type": "uint256"
        }
      ],
      "stateMutability": "nonpayable",
      "type": "function"
    },
    {
      "inputs": [
        {
          "internalType": "uint256",
          "name": "messageIndex",
          "type": "uint256"
        }
      ],
      "name": "deleteMessage",
      "outputs": [],
      "stateMutability": "nonpayable",
      "type": "function"
    },
    {
      "inputs": [],
      "name": "deleteUserPubKey",
      "outputs": [],
      "stateMutability": "nonpayable",
      "type": "function"
    },
    {
      "inputs": [
        {
          "internalType": "address",
          "name": "userAddress",
          "type": "address"
        }
      ],
      "name": "deleteUserPubKeyAdmin",
      "outputs": [],
      "stateMutability": "nonpayable",
      "type": "function"
    },
    {
      "inputs": [
        {
          "internalType": "uint256",
          "name": "offset",
          "type": "uint256"
        },
        {
          "internalType": "uint256",
          "name": "limit",
          "type": "uint256"
        },
        {
          "internalType": "bool",
          "name": "includeRead",
          "type": "bool"
        },
        {
          "internalType": "bool",
          "name": "includeExpired",
          "type": "bool"
        },
        {
          "internalType": "uint8",
          "name": "categoryFilter",
          "type": "uint8"
        }
      ],
      "name": "getMyMessages",
      "outputs": [
        {
          "components": [
            {
              "internalType": "bytes32",
              "name": "ipfsHash",
              "type": "bytes32"
            },
            {
              "internalType": "address",
              "name": "sender",
              "type": "address"
            },
            {
              "internalType": "uint64",
              "name": "timestamp",
              "type": "uint64"
            },
            {
              "internalType": "uint64",
              "name": "expiresAt",
              "type": "uint64"
            },
            {
              "internalType": "uint8",
              "name": "status",
              "type": "uint8"
            },
            {
              "internalType": "uint8",
              "name": "category",
              "type": "uint8"
            },
            {
              "internalType": "bool",
              "name": "isDeleted",
              "type": "bool"
            }
          ],
          "internalType": "struct ISecretDot.Message[]",
          "name": "messages",
          "type": "tuple[]"
        },
        {
          "internalType": "uint256",
          "name": "total",
          "type": "uint256"
        }
      ],
      "stateMutability": "view",
      "type": "function"
    },
    {
      "inputs": [],
      "name": "getMyPubKey",
      "outputs": [
        {
          "internalType": "string",
          "name": "pubkey",
          "type": "string"
        }
      ],
      "stateMutability": "view",
      "type": "function"
    },
    {
      "inputs": [
        {
          "internalType": "address",
          "name": "userAddress",
          "type": "address"
        }
      ],
      "name": "getUserPubKey",
      "outputs": [
        {
          "internalType": "string",
          "name": "pubkey",
          "type": "string"
        }
      ],
      "stateMutability": "view",
      "type": "function"
    },
    {
      "inputs": [
        {
          "internalType": "address",
          "name": "userAddress",
          "type": "address"
        }
      ],
      "name": "hasRegisteredPubKey",
      "outputs": [
        {
          "internalType": "bool",
          "name": "",
          "type": "bool"
        }
      ],
      "stateMutability": "view",
      "type": "function"
    },
    {
      "inputs": [
        {
          "internalType": "uint256",
          "name": "messageIndex",
          "type": "uint256"
        }
      ],
      "name": "markMessageAsRead",
      "outputs": [],
      "stateMutability": "nonpayable",
      "type": "function"
    },
    {
      "inputs": [],
      "name": "owner",
      "outputs": [
        {
          "internalType": "address",
          "name": "",
          "type": "address"
        }
      ],
      "stateMutability": "view",
      "type": "function"
    },
    {
      "inputs": [],
      "name": "pause",
      "outputs": [],
      "stateMutability": "nonpayable",
      "type": "function"
    },
    {
      "inputs": [],
      "name": "paused",
      "outputs": [
        {
          "internalType": "bool",
          "name": "",
          "type": "bool"
        }
      ],
      "stateMutability": "view",
      "type": "function"
    },
    {
      "inputs": [
        {
          "internalType": "string",
          "name": "pubkey",
          "type": "string"
        }
      ],
      "name": "registerUserPubKey",
      "outputs": [],
      "stateMutability": "nonpayable",
      "type": "function"
    },
    {
      "inputs": [],
      "name": "renounceOwnership",
      "outputs": [],
      "stateMutability": "nonpayable",
      "type": "function"
    },
    {
      "inputs": [
        {
          "internalType": "address",
          "name": "recipient",
          "type": "address"
        },
        {
          "internalType": "string",
          "name": "ipfsHash",
          "type": "string"
        },
        {
          "internalType": "uint64",
          "name": "ttl",
          "type": "uint64"
        },
        {
          "internalType": "uint8",
          "name": "category",
          "type": "uint8"
        }
      ],
      "name": "sendMessage",
      "outputs": [],
      "stateMutability": "nonpayable",
      "type": "function"
    },
    {
      "inputs": [
        {
          "internalType": "address",
          "name": "sender",
          "type": "address"
        },
        {
          "internalType": "bool",
          "name": "isBlocked",
          "type": "bool"
        }
      ],
      "name": "setBlockedSender",
      "outputs": [],
      "stateMutability": "nonpayable",
      "type": "function"
    },
    {
      "inputs": [
        {
          "internalType": "bool",
          "name": "isEnabled",
          "type": "bool"
        }
      ],
      "name": "toggleMessageReceiving",
      "outputs": [],
      "stateMutability": "nonpayable",
      "type": "function"
    },
    {
      "inputs": [
        {
          "internalType": "address",
          "name": "newOwner",
          "type": "address"
        }
      ],
      "name": "transferOwnership",
      "outputs": [],
      "stateMutability": "nonpayable",
      "type": "function"
    },
    {
      "inputs": [],
      "name": "unpause",
      "outputs": [],
      "stateMutability": "nonpayable",
      "type": "function"
    }
  ],
  "bytecode": "0x60806040523480156200001157600080fd5b5033600073ffffffffffffffffffffffffffffffffffffffff168173ffffffffffffffffffffffffffffffffffffffff1603620000885760006040517f1e4fbdf70000000000000000000000000000000000000000000000000000000081526004016200007f9190620001b0565b60405180910390fd5b6200009981620000a760201b60201c565b5060018081905550620001cd565b60008060009054906101000a900473ffffffffffffffffffffffffffffffffffffffff169050816000806101000a81548173ffffffffffffffffffffffffffffffffffffffff021916908373ffffffffffffffffffffffffffffffffffffffff1602179055508173ffffffffffffffffffffffffffffffffffffffff168173ffffffffffffffffffffffffffffffffffffffff167f8be0079c531659141344cd1fd0a4f28419497f9722a3daafe3b4186f6b6457e060405160405180910390a35050565b600073ffffffffffffffffffffffffffffffffffffffff82169050919050565b600062000198826200016b565b9050919050565b620001aa816200018b565b82525050565b6000602082019050620001c760008301846200019f565b92915050565b613dbd80620001dd6000396000f3fe608060405234801561001057600080fd5b50600436106101f05760003560e01c80638251931e1161010f578063b888690a116100a2578063d088db4011610071578063d088db401461050c578063d11d885b14610528578063dc9119f614610558578063f2fde38b14610588576101f0565b8063b888690a1461049c578063b95538a7146104b8578063c1f10127146104d4578063cb49b648146104f0576101f0565b8063a858cc17116100de578063a858cc171461043a578063ace446b314610444578063ad409c6f14610462578063ae08f9a814610480576101f0565b80638251931e146103d65780638456cb59146103f45780638da5cb5b146103fe57806397d340f51461041c576101f0565b80633f8c96ac116101875780635c975abb116101565780635c975abb1461037657806364dd47071461039457806370598d13146103b0578063715018a6146103cc576101f0565b80633f8c96ac146102de57806341b8b542146102fa578063479291881461032a5780635b37551e1461035a576101f0565b806330f664c8116101c357806330f664c81461027d57806337682398146102ae5780633b597013146102b85780633f4ba83a146102d4576101f0565b806302faf01b146101f55780630ccee584146102135780631cd3b4561461022f5780632a3077591461024d575b600080fd5b6101fd6105a4565b60405161020a9190612dad565b60405180910390f35b61022d60048036038101906102289190612f29565b61063e565b005b6102376106ac565b6040516102449190612f8b565b60405180910390f35b61026760048036038101906102629190612fd2565b6106b3565b604051610274919061300e565b60405180910390f35b610297600480360381019061029291906130ad565b610736565b6040516102a5929190613128565b60405180910390f35b6102b6610755565b005b6102d260048036038101906102cd9190612f29565b6107b7565b005b6102dc6107cb565b005b6102f860048036038101906102f39190613158565b6107dd565b005b610314600480360381019061030f9190612fd2565b61084b565b6040516103219190613204565b60405180910390f35b610344600480360381019061033f9190613158565b61085d565b6040516103519190612f8b565b60405180910390f35b610374600480360381019061036f9190613226565b610a5c565b005b61037e610b05565b60405161038b919061300e565b60405180910390f35b6103ae60048036038101906103a99190612fd2565b610b1c565b005b6103ca60048036038101906103c59190613158565b610b48565b005b6103d4610bb6565b005b6103de610bca565b6040516103eb9190613204565b60405180910390f35b6103fc610c45565b005b610406610c57565b6040516104139190613262565b60405180910390f35b610424610c80565b6040516104319190612f8b565b60405180910390f35b610442610c85565b005b61044c610ca7565b6040516104599190612f8b565b60405180910390f35b61046a610cac565b6040516104779190613204565b60405180910390f35b61049a600480360381019061049591906132a9565b610cbb565b005b6104b660048036038101906104b19190613158565b610ce5565b005b6104d260048036038101906104cd9190612fd2565b610d01565b005b6104ee60048036038101906104e99190613158565b610d6f565b005b61050a6004803603810190610505919061332c565b610d7b565b005b6105266004803603810190610521919061336c565b610e13565b005b610542600480360381019061053d9190612fd2565b610e89565b60405161054f9190613204565b60405180910390f35b610572600480360381019061056d9190612fd2565b610f11565b60405161057f919061300e565b60405180910390f35b6105a2600480360381019061059d9190612fd2565b610f23565b005b606060003073ffffffffffffffffffffffffffffffffffffffff166330f664c860006103e860018060006040518663ffffffff1660e01b81526004016105ee959493929190613479565b600060405180830381865afa15801561060b573d6000803e3d6000fd5b505050506040513d6000823e3d601f19601f8201168201806040525081019061063491906136e2565b5090508091505090565b3073ffffffffffffffffffffffffffffffffffffffff16633b597013826040518263ffffffff1660e01b81526004016106779190613204565b600060405180830381600087803b15801561069157600080fd5b505af11580156106a5573d6000803e3d6000fd5b5050505050565b62278d0081565b60003073ffffffffffffffffffffffffffffffffffffffff1663dc9119f6836040518263ffffffff1660e01b81526004016106ee9190613262565b602060405180830381865afa15801561070b573d6000803e3d6000fd5b505050506040513d601f19601f8201168201806040525081019061072f919061373e565b9050919050565b606060006107478787878787610fa9565b915091509550959350505050565b3073ffffffffffffffffffffffffffffffffffffffff1663a858cc176040518163ffffffff1660e01b8152600401600060405180830381600087803b15801561079d57600080fd5b505af11580156107b1573d6000803e3d6000fd5b50505050565b6107bf61148f565b6107c8816114d0565b50565b6107d36116c7565b6107db61174e565b565b3073ffffffffffffffffffffffffffffffffffffffff1663c1f10127826040518263ffffffff1660e01b81526004016108169190612f8b565b600060405180830381600087803b15801561083057600080fd5b505af1158015610844573d6000803e3d6000fd5b5050505050565b6060610856826117b1565b9050919050565b60006108676118ce565b6000600360003373ffffffffffffffffffffffffffffffffffffffff1673ffffffffffffffffffffffffffffffffffffffff168152602001908152602001600020905060008060005b8380549050811080156108c257508583105b15610a485782806108d29061379a565b9350508381815481106108e8576108e76137e2565b5b9060005260206000209060030201600201600a9054906101000a900460ff16610a355760008482815481106109205761091f6137e2565b5b906000526020600020906003020160020160009054906101000a900467ffffffffffffffff1667ffffffffffffffff161415801561099f575083818154811061096c5761096b6137e2565b5b906000526020600020906003020160020160009054906101000a900467ffffffffffffffff1667ffffffffffffffff1642115b15610a345760018482815481106109b9576109b86137e2565b5b9060005260206000209060030201600201600a6101000a81548160ff02191690831515021790555081806109ec9061379a565b925050803373ffffffffffffffffffffffffffffffffffffffff167f636bbf15c0522de78e45a4607aa8708931f7d74979e04f9522da0f86d70093ad60405160405180910390a35b5b8080610a409061379a565b9150506108b0565b50809350505050610a57611914565b919050565b8015600560003373ffffffffffffffffffffffffffffffffffffffff1673ffffffffffffffffffffffffffffffffffffffff16815260200190815260200160002060006101000a81548160ff0219169083151502179055503373ffffffffffffffffffffffffffffffffffffffff167fae6fca25ae275ddde2641ab6949eb4a3870ef705666d4e305882851a19525fa482604051610afa919061300e565b60405180910390a250565b6000600260009054906101000a900460ff16905090565b610b246116c7565b610b2c6118ce565b610b3461148f565b610b3d8161191d565b610b45611914565b50565b3073ffffffffffffffffffffffffffffffffffffffff1663b888690a826040518263ffffffff1660e01b8152600401610b819190612f8b565b600060405180830381600087803b158015610b9b57600080fd5b505af1158015610baf573d6000803e3d6000fd5b5050505050565b610bbe6116c7565b610bc86000611abf565b565b60603073ffffffffffffffffffffffffffffffffffffffff1663ad409c6f6040518163ffffffff1660e01b8152600401600060405180830381865afa158015610c17573d6000803e3d6000fd5b505050506040513d6000823e3d601f19601f82011682018060405250810190610c409190613881565b905090565b610c4d6116c7565b610c55611b83565b565b60008060009054906101000a900473ffffffffffffffffffffffffffffffffffffffff16905090565b606481565b610c8d6118ce565b610c9561148f565b610c9d611be6565b610ca5611914565b565b603c81565b6060610cb6611d87565b905090565b610cc36118ce565b610ccb61148f565b610cd784848484611ea2565b610cdf611914565b50505050565b610ced6118ce565b610cf68161244e565b610cfe611914565b50565b3073ffffffffffffffffffffffffffffffffffffffff166364dd4707826040518263ffffffff1660e01b8152600401610d3a9190613262565b600060405180830381600087803b158015610d5457600080fd5b505af1158015610d68573d6000803e3d6000fd5b5050505050565b610d78816125f4565b50565b80600660003373ffffffffffffffffffffffffffffffffffffffff1673ffffffffffffffffffffffffffffffffffffffff16815260200190815260200160002060008473ffffffffffffffffffffffffffffffffffffffff1673ffffffffffffffffffffffffffffffffffffffff16815260200190815260200160002060006101000a81548160ff0219169083151502179055505050565b3073ffffffffffffffffffffffffffffffffffffffff1663ae08f9a883836000806040518563ffffffff1660e01b8152600401610e5394939291906138fb565b600060405180830381600087803b158015610e6d57600080fd5b505af1158015610e81573d6000803e3d6000fd5b505050505050565b60603073ffffffffffffffffffffffffffffffffffffffff166341b8b542836040518263ffffffff1660e01b8152600401610ec49190613262565b600060405180830381865afa158015610ee1573d6000803e3d6000fd5b505050506040513d6000823e3d601f19601f82011682018060405250810190610f0a9190613881565b9050919050565b6000610f1c82612831565b9050919050565b610f2b6116c7565b600073ffffffffffffffffffffffffffffffffffffffff168173ffffffffffffffffffffffffffffffffffffffff1603610f9d5760006040517f1e4fbdf7000000000000000000000000000000000000000000000000000000008152600401610f949190613262565b60405180910390fd5b610fa681611abf565b50565b6060600080600360003373ffffffffffffffffffffffffffffffffffffffff1673ffffffffffffffffffffffffffffffffffffffff16815260200190815260200160002090506000805b8280549050811015611130576000838281548110611014576110136137e2565b5b9060005260206000209060030201905080600201600a9054906101000a900460ff1615611041575061111d565b88158015611063575060018160020160089054906101000a900460ff1660ff16145b1561106e575061111d565b8715801561109f575060008160020160009054906101000a900467ffffffffffffffff1667ffffffffffffffff1614155b80156110cc57508060020160009054906101000a900467ffffffffffffffff1667ffffffffffffffff1642115b156110d7575061111d565b60008760ff161415801561110257508660ff168160020160099054906101000a900460ff1660ff1614155b1561110d575061111d565b82806111189061379a565b935050505b80806111289061379a565b915050610ff3565b506000898211611141576000611167565b888a8361114e9190613947565b106111595788611166565b89826111659190613947565b5b5b905060008167ffffffffffffffff81111561118557611184612dfe565b5b6040519080825280602002602001820160405280156111be57816020015b6111ab612aed565b8152602001906001900390816111a35790505b509050600082111561147b5760008060005b8680549050811080156111e257508483105b156114775760008782815481106111fc576111fb6137e2565b5b9060005260206000209060030201905080600201600a9054906101000a900460ff16156112295750611464565b8c15801561124b575060018160020160089054906101000a900460ff1660ff16145b156112565750611464565b8b158015611287575060008160020160009054906101000a900467ffffffffffffffff1667ffffffffffffffff1614155b80156112b457508060020160009054906101000a900467ffffffffffffffff1667ffffffffffffffff1642115b156112bf5750611464565b60008b60ff16141580156112ea57508a60ff168160020160099054906101000a900460ff1660ff1614155b156112f55750611464565b8e8310156113115782806113089061379a565b93505050611464565b806040518060e0016040529081600082015481526020016001820160009054906101000a900473ffffffffffffffffffffffffffffffffffffffff1673ffffffffffffffffffffffffffffffffffffffff1673ffffffffffffffffffffffffffffffffffffffff1681526020016001820160149054906101000a900467ffffffffffffffff1667ffffffffffffffff1667ffffffffffffffff1681526020016002820160009054906101000a900467ffffffffffffffff1667ffffffffffffffff1667ffffffffffffffff1681526020016002820160089054906101000a900460ff1660ff1660ff1681526020016002820160099054906101000a900460ff1660ff1660ff16815260200160028201600a9054906101000a900460ff161515151581525050858581518110611449576114486137e2565b5b6020026020010181905250838061145f9061379a565b945050505b808061146f9061379a565b9150506111d0565b5050505b808395509550505050509550959350505050565b611497610b05565b156114ce576040517fd93c066500000000000000000000000000000000000000000000000000000000815260040160405180910390fd5b565b600081510361151657806040517fdb5bc9ab00000000000000000000000000000000000000000000000000000000815260040161150d9190613204565b60405180910390fd5b60026064611524919061397b565b815111156115795780516002606461153c919061397b565b6040517f36187ac70000000000000000000000000000000000000000000000000000000081526004016115709291906139bd565b60405180910390fd5b80600760003373ffffffffffffffffffffffffffffffffffffffff1673ffffffffffffffffffffffffffffffffffffffff16815260200190815260200160002090816115c59190613be8565b506000600860003373ffffffffffffffffffffffffffffffffffffffff1673ffffffffffffffffffffffffffffffffffffffff16815260200190815260200160002060006101000a81548160ff0219169083151502179055506000600560003373ffffffffffffffffffffffffffffffffffffffff1673ffffffffffffffffffffffffffffffffffffffff16815260200190815260200160002060006101000a81548160ff0219169083151502179055503373ffffffffffffffffffffffffffffffffffffffff167f17680f75b3bd6358c599e13674967a6d56ad9c0f29ab0df4850716fafde58cc0826040516116bc9190613204565b60405180910390a250565b6116cf6128de565b73ffffffffffffffffffffffffffffffffffffffff166116ed610c57565b73ffffffffffffffffffffffffffffffffffffffff161461174c576117106128de565b6040517f118cdaa70000000000000000000000000000000000000000000000000000000081526004016117439190613262565b60405180910390fd5b565b6117566128e6565b6000600260006101000a81548160ff0219169083151502179055507f5db9ee0a495bf2e6ff9c91a7834c1ba4fdd244a5e8aa4e537bd38aeae4b073aa61179a6128de565b6040516117a79190613262565b60405180910390a1565b60606000600760008473ffffffffffffffffffffffffffffffffffffffff1673ffffffffffffffffffffffffffffffffffffffff16815260200190815260200160002080546117ff90613a15565b80601f016020809104026020016040519081016040528092919081815260200182805461182b90613a15565b80156118785780601f1061184d57610100808354040283529160200191611878565b820191906000526020600020905b81548152906001019060200180831161185b57829003601f168201915b5050505050905060008151036118c557826040517fe6c01b2d0000000000000000000000000000000000000000000000000000000081526004016118bc9190613262565b60405180910390fd5b80915050919050565b60026001540361190a576040517f3ee5aeb500000000000000000000000000000000000000000000000000000000815260040160405180910390fd5b6002600181905550565b60018081905550565b61192681612831565b61196757806040517fe6c01b2d00000000000000000000000000000000000000000000000000000000815260040161195e9190613262565b60405180910390fd5b6001600860008373ffffffffffffffffffffffffffffffffffffffff1673ffffffffffffffffffffffffffffffffffffffff16815260200190815260200160002060006101000a81548160ff021916908315150217905550600760008273ffffffffffffffffffffffffffffffffffffffff1673ffffffffffffffffffffffffffffffffffffffff1681526020019081526020016000206000611a0a9190612b5f565b6001600560008373ffffffffffffffffffffffffffffffffffffffff1673ffffffffffffffffffffffffffffffffffffffff16815260200190815260200160002060006101000a81548160ff0219169083151502179055503373ffffffffffffffffffffffffffffffffffffffff168173ffffffffffffffffffffffffffffffffffffffff167fabdc0d7cb7250994aec27e094d8dacf9f4b1ff5c89f76310c956e5c2c3755a9a60405160405180910390a350565b60008060009054906101000a900473ffffffffffffffffffffffffffffffffffffffff169050816000806101000a81548173ffffffffffffffffffffffffffffffffffffffff021916908373ffffffffffffffffffffffffffffffffffffffff1602179055508173ffffffffffffffffffffffffffffffffffffffff168173ffffffffffffffffffffffffffffffffffffffff167f8be0079c531659141344cd1fd0a4f28419497f9722a3daafe3b4186f6b6457e060405160405180910390a35050565b611b8b61148f565b6001600260006101000a81548160ff0219169083151502179055507f62e78cea01bee320cd4e420270b5ea74000d11b0c9f74754ebdbfc544b05a258611bcf6128de565b604051611bdc9190613262565b60405180910390a1565b611bef33612831565b611c3057336040517fe6c01b2d000000000000000000000000000000000000000000000000000000008152600401611c279190613262565b60405180910390fd5b6001600860003373ffffffffffffffffffffffffffffffffffffffff1673ffffffffffffffffffffffffffffffffffffffff16815260200190815260200160002060006101000a81548160ff021916908315150217905550600760003373ffffffffffffffffffffffffffffffffffffffff1673ffffffffffffffffffffffffffffffffffffffff1681526020019081526020016000206000611cd39190612b5f565b6001600560003373ffffffffffffffffffffffffffffffffffffffff1673ffffffffffffffffffffffffffffffffffffffff16815260200190815260200160002060006101000a81548160ff0219169083151502179055503373ffffffffffffffffffffffffffffffffffffffff163373ffffffffffffffffffffffffffffffffffffffff167fabdc0d7cb7250994aec27e094d8dacf9f4b1ff5c89f76310c956e5c2c3755a9a60405160405180910390a3565b60606000600760003373ffffffffffffffffffffffffffffffffffffffff1673ffffffffffffffffffffffffffffffffffffffff1681526020019081526020016000208054611dd590613a15565b80601f0160208091040260200160405190810160405280929190818152602001828054611e0190613a15565b8015611e4e5780601f10611e2357610100808354040283529160200191611e4e565b820191906000526020600020905b815481529060010190602001808311611e3157829003601f168201915b505050505090506000815103611e9b57336040517fe6c01b2d000000000000000000000000000000000000000000000000000000008152600401611e929190613262565b60405180910390fd5b8091505090565b6000600760008673ffffffffffffffffffffffffffffffffffffffff1673ffffffffffffffffffffffffffffffffffffffff1681526020019081526020016000208054611eee90613a15565b905003611f3257836040517fe6c01b2d000000000000000000000000000000000000000000000000000000008152600401611f299190613262565b60405180910390fd5b600560008573ffffffffffffffffffffffffffffffffffffffff1673ffffffffffffffffffffffffffffffffffffffff16815260200190815260200160002060009054906101000a900460ff1615611fc157836040517f99004fce000000000000000000000000000000000000000000000000000000008152600401611fb89190613262565b60405180910390fd5b600660008573ffffffffffffffffffffffffffffffffffffffff1673ffffffffffffffffffffffffffffffffffffffff16815260200190815260200160002060003373ffffffffffffffffffffffffffffffffffffffff1673ffffffffffffffffffffffffffffffffffffffff16815260200190815260200160002060009054906101000a900460ff161561208f5733846040517fd83afbe7000000000000000000000000000000000000000000000000000000008152600401612086929190613cba565b60405180910390fd5b603c600460003373ffffffffffffffffffffffffffffffffffffffff1673ffffffffffffffffffffffffffffffffffffffff168152602001908152602001600020546120db9190613ce3565b42101561216c5733603c600460003373ffffffffffffffffffffffffffffffffffffffff1673ffffffffffffffffffffffffffffffffffffffff1681526020019081526020016000205461212f9190613ce3565b6040517fc3ae51f2000000000000000000000000000000000000000000000000000000008152600401612163929190613d17565b60405180910390fd5b600061217784612926565b90506000808467ffffffffffffffff16146121a7578367ffffffffffffffff16426121a29190613ce3565b6121b7565b62278d00426121b69190613ce3565b5b9050600360008773ffffffffffffffffffffffffffffffffffffffff1673ffffffffffffffffffffffffffffffffffffffff1681526020019081526020016000206040518060e001604052808481526020013373ffffffffffffffffffffffffffffffffffffffff1681526020014267ffffffffffffffff1681526020018367ffffffffffffffff168152602001600060ff1681526020018560ff1681526020016000151581525090806001815401808255809150506001900390600052602060002090600302016000909190919091506000820151816000015560208201518160010160006101000a81548173ffffffffffffffffffffffffffffffffffffffff021916908373ffffffffffffffffffffffffffffffffffffffff16021790555060408201518160010160146101000a81548167ffffffffffffffff021916908367ffffffffffffffff16021790555060608201518160020160006101000a81548167ffffffffffffffff021916908367ffffffffffffffff16021790555060808201518160020160086101000a81548160ff021916908360ff16021790555060a08201518160020160096101000a81548160ff021916908360ff16021790555060c082015181600201600a6101000a81548160ff021916908315150217905550505042600460003373ffffffffffffffffffffffffffffffffffffffff1673ffffffffffffffffffffffffffffffffffffffff168152602001908152602001600020819055508573ffffffffffffffffffffffffffffffffffffffff163373ffffffffffffffffffffffffffffffffffffffff167f4ac8868417cb696399fc86eefa527d268b76b4bbe883b6e1a49c24f6a818415d848460405161243e929190613d5e565b60405180910390a3505050505050565b600360003373ffffffffffffffffffffffffffffffffffffffff1673ffffffffffffffffffffffffffffffffffffffff1681526020019081526020016000208054905081106124d65733816040517ff380be230000000000000000000000000000000000000000000000000000000081526004016124cd929190613d17565b60405180910390fd5b6000600360003373ffffffffffffffffffffffffffffffffffffffff1673ffffffffffffffffffffffffffffffffffffffff1681526020019081526020016000208281548110612529576125286137e2565b5b9060005260206000209060030201905080600201600a9054906101000a900460ff161561258f5733826040517ff380be23000000000000000000000000000000000000000000000000000000008152600401612586929190613d17565b60405180910390fd5b600181600201600a6101000a81548160ff021916908315150217905550813373ffffffffffffffffffffffffffffffffffffffff167f636bbf15c0522de78e45a4607aa8708931f7d74979e04f9522da0f86d70093ad60405160405180910390a35050565b600360003373ffffffffffffffffffffffffffffffffffffffff1673ffffffffffffffffffffffffffffffffffffffff16815260200190815260200160002080549050811061267c5733816040517ff380be23000000000000000000000000000000000000000000000000000000008152600401612673929190613d17565b60405180910390fd5b6000600360003373ffffffffffffffffffffffffffffffffffffffff1673ffffffffffffffffffffffffffffffffffffffff16815260200190815260200160002082815481106126cf576126ce6137e2565b5b9060005260206000209060030201905080600201600a9054906101000a900460ff16156127355733826040517ff380be2300000000000000000000000000000000000000000000000000000000815260040161272c929190613d17565b60405180910390fd5b60008160020160009054906101000a900467ffffffffffffffff1667ffffffffffffffff161415801561278957508060020160009054906101000a900467ffffffffffffffff1667ffffffffffffffff1642115b156127cb57816040517f99c837100000000000000000000000000000000000000000000000000000000081526004016127c29190612f8b565b60405180910390fd5b60018160020160086101000a81548160ff021916908360ff160217905550813373ffffffffffffffffffffffffffffffffffffffff167f70bc1f79ea6d45d633cbe8fe195f318568ca2b638b02a010b8034180f040270e60405160405180910390a35050565b600080600760008473ffffffffffffffffffffffffffffffffffffffff1673ffffffffffffffffffffffffffffffffffffffff168152602001908152602001600020805461287e90613a15565b90501180156128d75750600860008373ffffffffffffffffffffffffffffffffffffffff1673ffffffffffffffffffffffffffffffffffffffff16815260200190815260200160002060009054906101000a900460ff16155b9050919050565b600033905090565b6128ee610b05565b612924576040517f8dfc202b00000000000000000000000000000000000000000000000000000000815260040160405180910390fd5b565b60008082510361296d57816040517fdb5bc9ab0000000000000000000000000000000000000000000000000000000081526004016129649190613204565b60405180910390fd5b6064825111156129b857815160646040517f36187ac70000000000000000000000000000000000000000000000000000000081526004016129af9291906139bd565b60405180910390fd5b60008290506002815110158015612a2f57507f5100000000000000000000000000000000000000000000000000000000000000816000815181106129ff576129fe6137e2565b5b602001015160f81c60f81b7effffffffffffffffffffffffffffffffffffffffffffffffffffffffffffff191614155b8015612a9b57507f6d0000000000000000000000000000000000000000000000000000000000000081600181518110612a6b57612a6a6137e2565b5b602001015160f81c60f81b7effffffffffffffffffffffffffffffffffffffffffffffffffffffffffffff191614155b15612add57826040517fdb5bc9ab000000000000000000000000000000000000000000000000000000008152600401612ad49190613204565b60405180910390fd5b8280519060200120915050919050565b6040518060e0016040528060008019168152602001600073ffffffffffffffffffffffffffffffffffffffff168152602001600067ffffffffffffffff168152602001600067ffffffffffffffff168152602001600060ff168152602001600060ff1681526020016000151581525090565b508054612b6b90613a15565b6000825580601f10612b7d5750612b9c565b601f016020900490600052602060002090810190612b9b9190612b9f565b5b50565b5b80821115612bb8576000816000905550600101612ba0565b5090565b600081519050919050565b600082825260208201905092915050565b6000819050602082019050919050565b6000819050919050565b612bfb81612be8565b82525050565b600073ffffffffffffffffffffffffffffffffffffffff82169050919050565b6000612c2c82612c01565b9050919050565b612c3c81612c21565b82525050565b600067ffffffffffffffff82169050919050565b612c5f81612c42565b82525050565b600060ff82169050919050565b612c7b81612c65565b82525050565b60008115159050919050565b612c9681612c81565b82525050565b60e082016000820151612cb26000850182612bf2565b506020820151612cc56020850182612c33565b506040820151612cd86040850182612c56565b506060820151612ceb6060850182612c56565b506080820151612cfe6080850182612c72565b5060a0820151612d1160a0850182612c72565b5060c0820151612d2460c0850182612c8d565b50505050565b6000612d368383612c9c565b60e08301905092915050565b6000602082019050919050565b6000612d5a82612bbc565b612d648185612bc7565b9350612d6f83612bd8565b8060005b83811015612da0578151612d878882612d2a565b9750612d9283612d42565b925050600181019050612d73565b5085935050505092915050565b60006020820190508181036000830152612dc78184612d4f565b905092915050565b6000604051905090565b600080fd5b600080fd5b600080fd5b600080fd5b6000601f19601f8301169050919050565b7f4e487b7100000000000000000000000000000000000000000000000000000000600052604160045260246000fd5b612e3682612ded565b810181811067ffffffffffffffff82111715612e5557612e54612dfe565b5b80604052505050565b6000612e68612dcf565b9050612e748282612e2d565b919050565b600067ffffffffffffffff821115612e9457612e93612dfe565b5b612e9d82612ded565b9050602081019050919050565b82818337600083830152505050565b6000612ecc612ec784612e79565b612e5e565b905082815260208101848484011115612ee857612ee7612de8565b5b612ef3848285612eaa565b509392505050565b600082601f830112612f1057612f0f612de3565b5b8135612f20848260208601612eb9565b91505092915050565b600060208284031215612f3f57612f3e612dd9565b5b600082013567ffffffffffffffff811115612f5d57612f5c612dde565b5b612f6984828501612efb565b91505092915050565b6000819050919050565b612f8581612f72565b82525050565b6000602082019050612fa06000830184612f7c565b92915050565b612faf81612c21565b8114612fba57600080fd5b50565b600081359050612fcc81612fa6565b92915050565b600060208284031215612fe857612fe7612dd9565b5b6000612ff684828501612fbd565b91505092915050565b61300881612c81565b82525050565b60006020820190506130236000830184612fff565b92915050565b61303281612f72565b811461303d57600080fd5b50565b60008135905061304f81613029565b92915050565b61305e81612c81565b811461306957600080fd5b50565b60008135905061307b81613055565b92915050565b61308a81612c65565b811461309557600080fd5b50565b6000813590506130a781613081565b92915050565b600080600080600060a086880312156130c9576130c8612dd9565b5b60006130d788828901613040565b95505060206130e888828901613040565b94505060406130f98882890161306c565b935050606061310a8882890161306c565b925050608061311b88828901613098565b9150509295509295909350565b600060408201905081810360008301526131428185612d4f565b90506131516020830184612f7c565b9392505050565b60006020828403121561316e5761316d612dd9565b5b600061317c84828501613040565b91505092915050565b600081519050919050565b600082825260208201905092915050565b60005b838110156131bf5780820151818401526020810190506131a4565b60008484015250505050565b60006131d682613185565b6131e08185613190565b93506131f08185602086016131a1565b6131f981612ded565b840191505092915050565b6000602082019050818103600083015261321e81846131cb565b905092915050565b60006020828403121561323c5761323b612dd9565b5b600061324a8482850161306c565b91505092915050565b61325c81612c21565b82525050565b60006020820190506132776000830184613253565b92915050565b61328681612c42565b811461329157600080fd5b50565b6000813590506132a38161327d565b92915050565b600080600080608085870312156132c3576132c2612dd9565b5b60006132d187828801612fbd565b945050602085013567ffffffffffffffff8111156132f2576132f1612dde565b5b6132fe87828801612efb565b935050604061330f87828801613294565b925050606061332087828801613098565b91505092959194509250565b6000806040838503121561334357613342612dd9565b5b600061335185828601612fbd565b92505060206133628582860161306c565b9150509250929050565b6000806040838503121561338357613382612dd9565b5b600061339185828601612fbd565b925050602083013567ffffffffffffffff8111156133b2576133b1612dde565b5b6133be85828601612efb565b9150509250929050565b6000819050919050565b6000819050919050565b60006133f76133f26133ed846133c8565b6133d2565b612f72565b9050919050565b613407816133dc565b82525050565b6000819050919050565b600061343261342d6134288461340d565b6133d2565b612f72565b9050919050565b61344281613417565b82525050565b600061346361345e613459846133c8565b6133d2565b612c65565b9050919050565b61347381613448565b82525050565b600060a08201905061348e60008301886133fe565b61349b6020830187613439565b6134a86040830186612fff565b6134b56060830185612fff565b6134c2608083018461346a565b9695505050505050565b600067ffffffffffffffff8211156134e7576134e6612dfe565b5b602082029050602081019050919050565b600080fd5b600080fd5b61350b81612be8565b811461351657600080fd5b50565b60008151905061352881613502565b92915050565b60008151905061353d81612fa6565b92915050565b6000815190506135528161327d565b92915050565b60008151905061356781613081565b92915050565b60008151905061357c81613055565b92915050565b600060e08284031215613598576135976134fd565b5b6135a260e0612e5e565b905060006135b284828501613519565b60008301525060206135c68482850161352e565b60208301525060406135da84828501613543565b60408301525060606135ee84828501613543565b606083015250608061360284828501613558565b60808301525060a061361684828501613558565b60a08301525060c061362a8482850161356d565b60c08301525092915050565b6000613649613644846134cc565b612e5e565b90508083825260208201905060e0840283018581111561366c5761366b6134f8565b5b835b8181101561369557806136818882613582565b84526020840193505060e08101905061366e565b5050509392505050565b600082601f8301126136b4576136b3612de3565b5b81516136c4848260208601613636565b91505092915050565b6000815190506136dc81613029565b92915050565b600080604083850312156136f9576136f8612dd9565b5b600083015167ffffffffffffffff81111561371757613716612dde565b5b6137238582860161369f565b9250506020613734858286016136cd565b9150509250929050565b60006020828403121561375457613753612dd9565b5b60006137628482850161356d565b91505092915050565b7f4e487b7100000000000000000000000000000000000000000000000000000000600052601160045260246000fd5b60006137a582612f72565b91507fffffffffffffffffffffffffffffffffffffffffffffffffffffffffffffffff82036137d7576137d661376b565b5b600182019050919050565b7f4e487b7100000000000000000000000000000000000000000000000000000000600052603260045260246000fd5b600061382461381f84612e79565b612e5e565b9050828152602081018484840111156138405761383f612de8565b5b61384b8482856131a1565b509392505050565b600082601f83011261386857613867612de3565b5b8151613878848260208601613811565b91505092915050565b60006020828403121561389757613896612dd9565b5b600082015167ffffffffffffffff8111156138b5576138b4612dde565b5b6138c184828501613853565b91505092915050565b60006138e56138e06138db846133c8565b6133d2565b612c42565b9050919050565b6138f5816138ca565b82525050565b60006080820190506139106000830187613253565b818103602083015261392281866131cb565b905061393160408301856138ec565b61393e606083018461346a565b95945050505050565b600061395282612f72565b915061395d83612f72565b92508282039050818111156139755761397461376b565b5b92915050565b600061398682612f72565b915061399183612f72565b925082820261399f81612f72565b915082820484148315176139b6576139b561376b565b5b5092915050565b60006040820190506139d26000830185612f7c565b6139df6020830184612f7c565b9392505050565b7f4e487b7100000000000000000000000000000000000000000000000000000000600052602260045260246000fd5b60006002820490506001821680613a2d57607f821691505b602082108103613a4057613a3f6139e6565b5b50919050565b60008190508160005260206000209050919050565b60006020601f8301049050919050565b600082821b905092915050565b600060088302613aa87fffffffffffffffffffffffffffffffffffffffffffffffffffffffffffffffff82613a6b565b613ab28683613a6b565b95508019841693508086168417925050509392505050565b6000613ae5613ae0613adb84612f72565b6133d2565b612f72565b9050919050565b6000819050919050565b613aff83613aca565b613b13613b0b82613aec565b848454613a78565b825550505050565b600090565b613b28613b1b565b613b33818484613af6565b505050565b5b81811015613b5757613b4c600082613b20565b600181019050613b39565b5050565b601f821115613b9c57613b6d81613a46565b613b7684613a5b565b81016020851015613b85578190505b613b99613b9185613a5b565b830182613b38565b50505b505050565b600082821c905092915050565b6000613bbf60001984600802613ba1565b1980831691505092915050565b6000613bd88383613bae565b9150826002028217905092915050565b613bf182613185565b67ffffffffffffffff811115613c0a57613c09612dfe565b5b613c148254613a15565b613c1f828285613b5b565b600060209050601f831160018114613c525760008415613c40578287015190505b613c4a8582613bcc565b865550613cb2565b601f198416613c6086613a46565b60005b82811015613c8857848901518255600182019150602085019450602081019050613c63565b86831015613ca55784890151613ca1601f891682613bae565b8355505b6001600288020188555050505b505050505050565b6000604082019050613ccf6000830185613253565b613cdc6020830184613253565b9392505050565b6000613cee82612f72565b9150613cf983612f72565b9250828201905080821115613d1157613d1061376b565b5b92915050565b6000604082019050613d2c6000830185613253565b613d396020830184612f7c565b9392505050565b613d4981612be8565b82525050565b613d5881612c42565b82525050565b6000604082019050613d736000830185613d40565b613d806020830184613d4f565b939250505056fea2646970667358221220e0c578d5f1becf1ab816c1cea5976e3a0ca96c3ad3ea8f904dae3cd0c09391e264736f6c63430008140033",
  "linkReferences": {},
  "deployedLinkReferences": {}
}