{
  "_format": "hh-sol-artifact-1",
  "contractName": "SecretDot",
  "sourceName": "contracts/SecretDot.sol",
  "abi": [
    {
      "inputs": [],
      "stateMutability": "nonpayable",
      "type": "constructor"
    },
    {
      "inputs": [],
      "name": "EnforcedPause",
      "type": "error"
    },
    {
      "inputs": [],
      "name": "ExpectedPause",
      "type": "error"
    },
    {
      "inputs": [
        {
          "internalType": "string",
          "name": "hash",
          "type": "string"
        }
      ],
      "name": "InvalidIPFSHashError",
      "type": "error"
    },
    {
      "inputs": [
        {
          "internalType": "uint256",
          "name": "messageIndex",
          "type": "uint256"
        }
      ],
      "name": "MessageExpiredError",
      "type": "error"
    },
    {
      "inputs": [
        {
          "internalType": "address",
          "name": "user",
          "type": "address"
        },
        {
          "internalType": "uint256",
          "name": "messageIndex",
          "type": "uint256"
        }
      ],
      "name": "MessageNotFoundError",
      "type": "error"
    },
    {
      "inputs": [
        {
          "internalType": "address",
          "name": "recipient",
          "type": "address"
        }
      ],
      "name": "MessageReceivingDisabledError",
      "type": "error"
    },
    {
      "inputs": [
        {
          "internalType": "uint256",
          "name": "size",
          "type": "uint256"
        },
        {
          "internalType": "uint256",
          "name": "maxSize",
          "type": "uint256"
        }
      ],
      "name": "MessageTooLargeError",
      "type": "error"
    },
    {
      "inputs": [
        {
          "internalType": "address",
          "name": "owner",
          "type": "address"
        }
      ],
      "name": "OwnableInvalidOwner",
      "type": "error"
    },
    {
      "inputs": [
        {
          "internalType": "address",
          "name": "account",
          "type": "address"
        }
      ],
      "name": "OwnableUnauthorizedAccount",
      "type": "error"
    },
    {
      "inputs": [
        {
          "internalType": "address",
          "name": "user",
          "type": "address"
        }
      ],
      "name": "PubKeyNotFoundError",
      "type": "error"
    },
    {
      "inputs": [
        {
          "internalType": "address",
          "name": "sender",
          "type": "address"
        },
        {
          "internalType": "uint256",
          "name": "cooldownEnd",
          "type": "uint256"
        }
      ],
      "name": "RateLimitExceededError",
      "type": "error"
    },
    {
      "inputs": [],
      "name": "ReentrancyGuardReentrantCall",
      "type": "error"
    },
    {
      "inputs": [
        {
          "internalType": "address",
          "name": "sender",
          "type": "address"
        },
        {
          "internalType": "address",
          "name": "recipient",
          "type": "address"
        }
      ],
      "name": "SenderBlockedError",
      "type": "error"
    },
    {
      "inputs": [
        {
          "internalType": "address",
          "name": "caller",
          "type": "address"
        },
        {
          "internalType": "address",
          "name": "target",
          "type": "address"
        }
      ],
      "name": "UnauthorizedAccessError",
      "type": "error"
    },
    {
      "anonymous": false,
      "inputs": [
        {
          "indexed": true,
          "internalType": "address",
          "name": "user",
          "type": "address"
        },
        {
          "indexed": true,
          "internalType": "uint256",
          "name": "messageIndex",
          "type": "uint256"
        }
      ],
      "name": "MessageDeleted",
      "type": "event"
    },
    {
      "anonymous": false,
      "inputs": [
        {
          "indexed": true,
          "internalType": "address",
          "name": "user",
          "type": "address"
        },
        {
          "indexed": true,
          "internalType": "uint256",
          "name": "messageIndex",
          "type": "uint256"
        }
      ],
      "name": "MessageRead",
      "type": "event"
    },
    {
      "anonymous": false,
      "inputs": [
        {
          "indexed": true,
          "internalType": "address",
          "name": "user",
          "type": "address"
        },
        {
          "indexed": false,
          "internalType": "bool",
          "name": "isEnabled",
          "type": "bool"
        }
      ],
      "name": "MessageReceivingToggled",
      "type": "event"
    },
    {
      "anonymous": false,
      "inputs": [
        {
          "indexed": true,
          "internalType": "address",
          "name": "sender",
          "type": "address"
        },
        {
          "indexed": true,
          "internalType": "address",
          "name": "recipient",
          "type": "address"
        },
        {
          "indexed": false,
          "internalType": "bytes32",
          "name": "ipfsHash",
          "type": "bytes32"
        },
        {
          "indexed": false,
          "internalType": "uint64",
          "name": "expiresAt",
          "type": "uint64"
        }
      ],
      "name": "MessageSent",
      "type": "event"
    },
    {
      "anonymous": false,
      "inputs": [
        {
          "indexed": true,
          "internalType": "address",
          "name": "previousOwner",
          "type": "address"
        },
        {
          "indexed": true,
          "internalType": "address",
          "name": "newOwner",
          "type": "address"
        }
      ],
      "name": "OwnershipTransferred",
      "type": "event"
    },
    {
      "anonymous": false,
      "inputs": [
        {
          "indexed": false,
          "internalType": "address",
          "name": "account",
          "type": "address"
        }
      ],
      "name": "Paused",
      "type": "event"
    },
    {
      "anonymous": false,
      "inputs": [
        {
          "indexed": true,
          "internalType": "address",
          "name": "user",
          "type": "address"
        },
        {
          "indexed": true,
          "internalType": "address",
          "name": "deletedBy",
          "type": "address"
        }
      ],
      "name": "PubKeyDeleted",
      "type": "event"
    },
    {
      "anonymous": false,
      "inputs": [
        {
          "indexed": true,
          "internalType": "address",
          "name": "user",
          "type": "address"
        },
        {
          "indexed": false,
          "internalType": "string",
          "name": "pubKey",
          "type": "string"
        }
      ],
      "name": "PubKeyRegistered",
      "type": "event"
    },
    {
      "anonymous": false,
      "inputs": [
        {
          "indexed": false,
          "internalType": "address",
          "name": "account",
          "type": "address"
        }
      ],
      "name": "Unpaused",
      "type": "event"
    },
    {
      "inputs": [],
      "name": "DEFAULT_MESSAGE_TTL",
      "outputs": [
        {
          "internalType": "uint256",
          "name": "",
          "type": "uint256"
        }
      ],
      "stateMutability": "view",
      "type": "function"
    },
    {
      "inputs": [
        {
          "internalType": "uint256",
          "name": "messageIndex",
          "type": "uint256"
        }
      ],
      "name": "DeleteMessage",
      "outputs": [],
      "stateMutability": "nonpayable",
      "type": "function"
    },
    {
      "inputs": [],
      "name": "DeleteUserPubKey",
      "outputs": [],
      "stateMutability": "nonpayable",
      "type": "function"
    },
    {
      "inputs": [
        {
          "internalType": "address",
          "name": "userAddress",
          "type": "address"
        }
      ],
      "name": "DeleteUserPubKeyAdmin",
      "outputs": [],
      "stateMutability": "nonpayable",
      "type": "function"
    },
    {
      "inputs": [],
      "name": "GetMyMessages",
      "outputs": [
        {
          "components": [
            {
              "internalType": "bytes32",
              "name": "ipfsHash",
              "type": "bytes32"
            },
            {
              "internalType": "address",
              "name": "sender",
              "type": "address"
            },
            {
              "internalType": "uint64",
              "name": "timestamp",
              "type": "uint64"
            },
            {
              "internalType": "uint64",
              "name": "expiresAt",
              "type": "uint64"
            },
            {
              "internalType": "uint8",
              "name": "status",
              "type": "uint8"
            },
            {
              "internalType": "uint8",
              "name": "category",
              "type": "uint8"
            },
            {
              "internalType": "bool",
              "name": "isDeleted",
              "type": "bool"
            }
          ],
          "internalType": "struct ISecretDot.Message[]",
          "name": "",
          "type": "tuple[]"
        }
      ],
      "stateMutability": "view",
      "type": "function"
    },
    {
      "inputs": [],
      "name": "GetMyPubKey",
      "outputs": [
        {
          "internalType": "string",
          "name": "",
          "type": "string"
        }
      ],
      "stateMutability": "view",
      "type": "function"
    },
    {
      "inputs": [
        {
          "internalType": "address",
          "name": "userAddress",
          "type": "address"
        }
      ],
      "name": "GetUserPubKey",
      "outputs": [
        {
          "internalType": "string",
          "name": "",
          "type": "string"
        }
      ],
      "stateMutability": "view",
      "type": "function"
    },
    {
      "inputs": [
        {
          "internalType": "address",
          "name": "userAddress",
          "type": "address"
        }
      ],
      "name": "HasRegisteredPubKey",
      "outputs": [
        {
          "internalType": "bool",
          "name": "",
          "type": "bool"
        }
      ],
      "stateMutability": "view",
      "type": "function"
    },
    {
      "inputs": [],
      "name": "MAX_MESSAGE_SIZE",
      "outputs": [
        {
          "internalType": "uint256",
          "name": "",
          "type": "uint256"
        }
      ],
      "stateMutability": "view",
      "type": "function"
    },
    {
      "inputs": [],
      "name": "MESSAGE_COOLDOWN",
      "outputs": [
        {
          "internalType": "uint256",
          "name": "",
          "type": "uint256"
        }
      ],
      "stateMutability": "view",
      "type": "function"
    },
    {
      "inputs": [
        {
          "internalType": "uint256",
          "name": "messageIndex",
          "type": "uint256"
        }
      ],
      "name": "MarkMessageAsRead",
      "outputs": [],
      "stateMutability": "nonpayable",
      "type": "function"
    },
    {
      "inputs": [
        {
          "internalType": "string",
          "name": "pubkey",
          "type": "string"
        }
      ],
      "name": "RegisterUserPubKey",
      "outputs": [],
      "stateMutability": "nonpayable",
      "type": "function"
    },
    {
      "inputs": [
        {
          "internalType": "address",
          "name": "recipient",
          "type": "address"
        },
        {
          "internalType": "string",
          "name": "ipfsHash",
          "type": "string"
        }
      ],
      "name": "SendMessage",
      "outputs": [],
      "stateMutability": "nonpayable",
      "type": "function"
    },
    {
      "inputs": [
        {
          "internalType": "uint256",
          "name": "limit",
          "type": "uint256"
        }
      ],
      "name": "cleanupExpiredMessages",
      "outputs": [
        {
          "internalType": "uint256",
          "name": "count",
          "type": "uint256"
        }
      ],
      "stateMutability": "nonpayable",
      "type": "function"
    },
    {
      "inputs": [
        {
          "internalType": "uint256",
          "name": "messageIndex",
          "type": "uint256"
        }
      ],
      "name": "deleteMessage",
      "outputs": [],
      "stateMutability": "nonpayable",
      "type": "function"
    },
    {
      "inputs": [],
      "name": "deleteUserPubKey",
      "outputs": [],
      "stateMutability": "nonpayable",
      "type": "function"
    },
    {
      "inputs": [
        {
          "internalType": "address",
          "name": "userAddress",
          "type": "address"
        }
      ],
      "name": "deleteUserPubKeyAdmin",
      "outputs": [],
      "stateMutability": "nonpayable",
      "type": "function"
    },
    {
      "inputs": [
        {
          "internalType": "uint256",
          "name": "offset",
          "type": "uint256"
        },
        {
          "internalType": "uint256",
          "name": "limit",
          "type": "uint256"
        },
        {
          "internalType": "bool",
          "name": "includeRead",
          "type": "bool"
        },
        {
          "internalType": "bool",
          "name": "includeExpired",
          "type": "bool"
        },
        {
          "internalType": "uint8",
          "name": "categoryFilter",
          "type": "uint8"
        }
      ],
      "name": "getMyMessages",
      "outputs": [
        {
          "components": [
            {
              "internalType": "bytes32",
              "name": "ipfsHash",
              "type": "bytes32"
            },
            {
              "internalType": "address",
              "name": "sender",
              "type": "address"
            },
            {
              "internalType": "uint64",
              "name": "timestamp",
              "type": "uint64"
            },
            {
              "internalType": "uint64",
              "name": "expiresAt",
              "type": "uint64"
            },
            {
              "internalType": "uint8",
              "name": "status",
              "type": "uint8"
            },
            {
              "internalType": "uint8",
              "name": "category",
              "type": "uint8"
            },
            {
              "internalType": "bool",
              "name": "isDeleted",
              "type": "bool"
            }
          ],
          "internalType": "struct ISecretDot.Message[]",
          "name": "messages",
          "type": "tuple[]"
        },
        {
          "internalType": "uint256",
          "name": "total",
          "type": "uint256"
        }
      ],
      "stateMutability": "view",
      "type": "function"
    },
    {
      "inputs": [],
      "name": "getMyPubKey",
      "outputs": [
        {
          "internalType": "string",
          "name": "pubkey",
          "type": "string"
        }
      ],
      "stateMutability": "view",
      "type": "function"
    },
    {
      "inputs": [
        {
          "internalType": "address",
          "name": "userAddress",
          "type": "address"
        }
      ],
      "name": "getUserPubKey",
      "outputs": [
        {
          "internalType": "string",
          "name": "pubkey",
          "type": "string"
        }
      ],
      "stateMutability": "view",
      "type": "function"
    },
    {
      "inputs": [
        {
          "internalType": "address",
          "name": "userAddress",
          "type": "address"
        }
      ],
      "name": "hasRegisteredPubKey",
      "outputs": [
        {
          "internalType": "bool",
          "name": "",
          "type": "bool"
        }
      ],
      "stateMutability": "view",
      "type": "function"
    },
    {
      "inputs": [
        {
          "internalType": "uint256",
          "name": "messageIndex",
          "type": "uint256"
        }
      ],
      "name": "markMessageAsRead",
      "outputs": [],
      "stateMutability": "nonpayable",
      "type": "function"
    },
    {
      "inputs": [],
      "name": "owner",
      "outputs": [
        {
          "internalType": "address",
          "name": "",
          "type": "address"
        }
      ],
      "stateMutability": "view",
      "type": "function"
    },
    {
      "inputs": [],
      "name": "pause",
      "outputs": [],
      "stateMutability": "nonpayable",
      "type": "function"
    },
    {
      "inputs": [],
      "name": "paused",
      "outputs": [
        {
          "internalType": "bool",
          "name": "",
          "type": "bool"
        }
      ],
      "stateMutability": "view",
      "type": "function"
    },
    {
      "inputs": [
        {
          "internalType": "string",
          "name": "pubkey",
          "type": "string"
        }
      ],
      "name": "registerUserPubKey",
      "outputs": [],
      "stateMutability": "nonpayable",
      "type": "function"
    },
    {
      "inputs": [],
      "name": "renounceOwnership",
      "outputs": [],
      "stateMutability": "nonpayable",
      "type": "function"
    },
    {
      "inputs": [
        {
          "internalType": "address",
          "name": "recipient",
          "type": "address"
        },
        {
          "internalType": "string",
          "name": "ipfsHash",
          "type": "string"
        },
        {
          "internalType": "uint64",
          "name": "ttl",
          "type": "uint64"
        },
        {
          "internalType": "uint8",
          "name": "category",
          "type": "uint8"
        }
      ],
      "name": "sendMessage",
      "outputs": [],
      "stateMutability": "nonpayable",
      "type": "function"
    },
    {
      "inputs": [
        {
          "internalType": "address",
          "name": "sender",
          "type": "address"
        },
        {
          "internalType": "bool",
          "name": "isBlocked",
          "type": "bool"
        }
      ],
      "name": "setBlockedSender",
      "outputs": [],
      "stateMutability": "nonpayable",
      "type": "function"
    },
    {
      "inputs": [
        {
          "internalType": "bool",
          "name": "isEnabled",
          "type": "bool"
        }
      ],
      "name": "toggleMessageReceiving",
      "outputs": [],
      "stateMutability": "nonpayable",
      "type": "function"
    },
    {
      "inputs": [
        {
          "internalType": "address",
          "name": "newOwner",
          "type": "address"
        }
      ],
      "name": "transferOwnership",
      "outputs": [],
      "stateMutability": "nonpayable",
      "type": "function"
    },
    {
      "inputs": [],
      "name": "unpause",
      "outputs": [],
      "stateMutability": "nonpayable",
      "type": "function"
    }
  ],
  "bytecode": "0x60806040523480156200001157600080fd5b5033600073ffffffffffffffffffffffffffffffffffffffff168173ffffffffffffffffffffffffffffffffffffffff1603620000885760006040517f1e4fbdf70000000000000000000000000000000000000000000000000000000081526004016200007f9190620001b0565b60405180910390fd5b6200009981620000a760201b60201c565b5060018081905550620001cd565b60008060009054906101000a900473ffffffffffffffffffffffffffffffffffffffff169050816000806101000a81548173ffffffffffffffffffffffffffffffffffffffff021916908373ffffffffffffffffffffffffffffffffffffffff1602179055508173ffffffffffffffffffffffffffffffffffffffff168173ffffffffffffffffffffffffffffffffffffffff167f8be0079c531659141344cd1fd0a4f28419497f9722a3daafe3b4186f6b6457e060405160405180910390a35050565b600073ffffffffffffffffffffffffffffffffffffffff82169050919050565b600062000198826200016b565b9050919050565b620001aa816200018b565b82525050565b6000602082019050620001c760008301846200019f565b92915050565b613df180620001dd6000396000f3fe608060405234801561001057600080fd5b50600436106101f05760003560e01c80638251931e1161010f578063b888690a116100a2578063d088db4011610071578063d088db401461050c578063d11d885b14610528578063dc9119f614610558578063f2fde38b14610588576101f0565b8063b888690a1461049c578063b95538a7146104b8578063c1f10127146104d4578063cb49b648146104f0576101f0565b8063a858cc17116100de578063a858cc171461043a578063ace446b314610444578063ad409c6f14610462578063ae08f9a814610480576101f0565b80638251931e146103d65780638456cb59146103f45780638da5cb5b146103fe57806397d340f51461041c576101f0565b80633f8c96ac116101875780635c975abb116101565780635c975abb1461037657806364dd47071461039457806370598d13146103b0578063715018a6146103cc576101f0565b80633f8c96ac146102de57806341b8b542146102fa578063479291881461032a5780635b37551e1461035a576101f0565b806330f664c8116101c357806330f664c81461027d57806337682398146102ae5780633b597013146102b85780633f4ba83a146102d4576101f0565b806302faf01b146101f55780630ccee584146102135780631cd3b4561461022f5780632a3077591461024d575b600080fd5b6101fd6105a4565b60405161020a9190612de1565b60405180910390f35b61022d60048036038101906102289190612f5d565b61063e565b005b6102376106ac565b6040516102449190612fbf565b60405180910390f35b61026760048036038101906102629190613006565b6106b3565b6040516102749190613042565b60405180910390f35b610297600480360381019061029291906130e1565b610736565b6040516102a592919061315c565b60405180910390f35b6102b6610755565b005b6102d260048036038101906102cd9190612f5d565b6107b7565b005b6102dc6107cb565b005b6102f860048036038101906102f3919061318c565b6107dd565b005b610314600480360381019061030f9190613006565b61084b565b6040516103219190613238565b60405180910390f35b610344600480360381019061033f919061318c565b61085d565b6040516103519190612fbf565b60405180910390f35b610374600480360381019061036f919061325a565b610a5c565b005b61037e610b05565b60405161038b9190613042565b60405180910390f35b6103ae60048036038101906103a99190613006565b610b1c565b005b6103ca60048036038101906103c5919061318c565b610b48565b005b6103d4610bb6565b005b6103de610bca565b6040516103eb9190613238565b60405180910390f35b6103fc610c45565b005b610406610c57565b6040516104139190613296565b60405180910390f35b610424610c80565b6040516104319190612fbf565b60405180910390f35b610442610c85565b005b61044c610ca7565b6040516104599190612fbf565b60405180910390f35b61046a610cac565b6040516104779190613238565b60405180910390f35b61049a600480360381019061049591906132dd565b610cbb565b005b6104b660048036038101906104b1919061318c565b610ce5565b005b6104d260048036038101906104cd9190613006565b610d01565b005b6104ee60048036038101906104e9919061318c565b610d6f565b005b61050a60048036038101906105059190613360565b610d7b565b005b610526600480360381019061052191906133a0565b610e13565b005b610542600480360381019061053d9190613006565b610e89565b60405161054f9190613238565b60405180910390f35b610572600480360381019061056d9190613006565b610f11565b60405161057f9190613042565b60405180910390f35b6105a2600480360381019061059d9190613006565b610f23565b005b606060003073ffffffffffffffffffffffffffffffffffffffff166330f664c860006103e860018060006040518663ffffffff1660e01b81526004016105ee9594939291906134ad565b600060405180830381865afa15801561060b573d6000803e3d6000fd5b505050506040513d6000823e3d601f19601f820116820180604052508101906106349190613716565b5090508091505090565b3073ffffffffffffffffffffffffffffffffffffffff16633b597013826040518263ffffffff1660e01b81526004016106779190613238565b600060405180830381600087803b15801561069157600080fd5b505af11580156106a5573d6000803e3d6000fd5b5050505050565b62278d0081565b60003073ffffffffffffffffffffffffffffffffffffffff1663dc9119f6836040518263ffffffff1660e01b81526004016106ee9190613296565b602060405180830381865afa15801561070b573d6000803e3d6000fd5b505050506040513d601f19601f8201168201806040525081019061072f9190613772565b9050919050565b606060006107478787878787610fa9565b915091509550959350505050565b3073ffffffffffffffffffffffffffffffffffffffff1663a858cc176040518163ffffffff1660e01b8152600401600060405180830381600087803b15801561079d57600080fd5b505af11580156107b1573d6000803e3d6000fd5b50505050565b6107bf61148f565b6107c8816114d0565b50565b6107d361166f565b6107db6116f6565b565b3073ffffffffffffffffffffffffffffffffffffffff1663c1f10127826040518263ffffffff1660e01b81526004016108169190612fbf565b600060405180830381600087803b15801561083057600080fd5b505af1158015610844573d6000803e3d6000fd5b5050505050565b606061085682611759565b9050919050565b6000610867611876565b6000600360003373ffffffffffffffffffffffffffffffffffffffff1673ffffffffffffffffffffffffffffffffffffffff168152602001908152602001600020905060008060005b8380549050811080156108c257508583105b15610a485782806108d2906137ce565b9350508381815481106108e8576108e7613816565b5b9060005260206000209060030201600201600a9054906101000a900460ff16610a355760008482815481106109205761091f613816565b5b906000526020600020906003020160020160009054906101000a900467ffffffffffffffff1667ffffffffffffffff161415801561099f575083818154811061096c5761096b613816565b5b906000526020600020906003020160020160009054906101000a900467ffffffffffffffff1667ffffffffffffffff1642115b15610a345760018482815481106109b9576109b8613816565b5b9060005260206000209060030201600201600a6101000a81548160ff02191690831515021790555081806109ec906137ce565b925050803373ffffffffffffffffffffffffffffffffffffffff167f636bbf15c0522de78e45a4607aa8708931f7d74979e04f9522da0f86d70093ad60405160405180910390a35b5b8080610a40906137ce565b9150506108b0565b50809350505050610a576118bc565b919050565b8015600560003373ffffffffffffffffffffffffffffffffffffffff1673ffffffffffffffffffffffffffffffffffffffff16815260200190815260200160002060006101000a81548160ff0219169083151502179055503373ffffffffffffffffffffffffffffffffffffffff167fae6fca25ae275ddde2641ab6949eb4a3870ef705666d4e305882851a19525fa482604051610afa9190613042565b60405180910390a250565b6000600260009054906101000a900460ff16905090565b610b2461166f565b610b2c611876565b610b3461148f565b610b3d816118c5565b610b456118bc565b50565b3073ffffffffffffffffffffffffffffffffffffffff1663b888690a826040518263ffffffff1660e01b8152600401610b819190612fbf565b600060405180830381600087803b158015610b9b57600080fd5b505af1158015610baf573d6000803e3d6000fd5b5050505050565b610bbe61166f565b610bc86000611ad8565b565b60603073ffffffffffffffffffffffffffffffffffffffff1663ad409c6f6040518163ffffffff1660e01b8152600401600060405180830381865afa158015610c17573d6000803e3d6000fd5b505050506040513d6000823e3d601f19601f82011682018060405250810190610c4091906138b5565b905090565b610c4d61166f565b610c55611b9c565b565b60008060009054906101000a900473ffffffffffffffffffffffffffffffffffffffff16905090565b606481565b610c8d611876565b610c9561148f565b610c9d611bff565b610ca56118bc565b565b603c81565b6060610cb6611e11565b905090565b610cc3611876565b610ccb61148f565b610cd784848484611f2c565b610cdf6118bc565b50505050565b610ced611876565b610cf6816124d8565b610cfe6118bc565b50565b3073ffffffffffffffffffffffffffffffffffffffff166364dd4707826040518263ffffffff1660e01b8152600401610d3a9190613296565b600060405180830381600087803b158015610d5457600080fd5b505af1158015610d68573d6000803e3d6000fd5b5050505050565b610d788161267e565b50565b80600660003373ffffffffffffffffffffffffffffffffffffffff1673ffffffffffffffffffffffffffffffffffffffff16815260200190815260200160002060008473ffffffffffffffffffffffffffffffffffffffff1673ffffffffffffffffffffffffffffffffffffffff16815260200190815260200160002060006101000a81548160ff0219169083151502179055505050565b3073ffffffffffffffffffffffffffffffffffffffff1663ae08f9a883836000806040518563ffffffff1660e01b8152600401610e53949392919061392f565b600060405180830381600087803b158015610e6d57600080fd5b505af1158015610e81573d6000803e3d6000fd5b505050505050565b60603073ffffffffffffffffffffffffffffffffffffffff166341b8b542836040518263ffffffff1660e01b8152600401610ec49190613296565b600060405180830381865afa158015610ee1573d6000803e3d6000fd5b505050506040513d6000823e3d601f19601f82011682018060405250810190610f0a91906138b5565b9050919050565b6000610f1c826128bb565b9050919050565b610f2b61166f565b600073ffffffffffffffffffffffffffffffffffffffff168173ffffffffffffffffffffffffffffffffffffffff1603610f9d5760006040517f1e4fbdf7000000000000000000000000000000000000000000000000000000008152600401610f949190613296565b60405180910390fd5b610fa681611ad8565b50565b6060600080600360003373ffffffffffffffffffffffffffffffffffffffff1673ffffffffffffffffffffffffffffffffffffffff16815260200190815260200160002090506000805b828054905081101561113057600083828154811061101457611013613816565b5b9060005260206000209060030201905080600201600a9054906101000a900460ff1615611041575061111d565b88158015611063575060018160020160089054906101000a900460ff1660ff16145b1561106e575061111d565b8715801561109f575060008160020160009054906101000a900467ffffffffffffffff1667ffffffffffffffff1614155b80156110cc57508060020160009054906101000a900467ffffffffffffffff1667ffffffffffffffff1642115b156110d7575061111d565b60008760ff161415801561110257508660ff168160020160099054906101000a900460ff1660ff1614155b1561110d575061111d565b8280611118906137ce565b935050505b8080611128906137ce565b915050610ff3565b506000898211611141576000611167565b888a8361114e919061397b565b106111595788611166565b8982611165919061397b565b5b5b905060008167ffffffffffffffff81111561118557611184612e32565b5b6040519080825280602002602001820160405280156111be57816020015b6111ab612b21565b8152602001906001900390816111a35790505b509050600082111561147b5760008060005b8680549050811080156111e257508483105b156114775760008782815481106111fc576111fb613816565b5b9060005260206000209060030201905080600201600a9054906101000a900460ff16156112295750611464565b8c15801561124b575060018160020160089054906101000a900460ff1660ff16145b156112565750611464565b8b158015611287575060008160020160009054906101000a900467ffffffffffffffff1667ffffffffffffffff1614155b80156112b457508060020160009054906101000a900467ffffffffffffffff1667ffffffffffffffff1642115b156112bf5750611464565b60008b60ff16141580156112ea57508a60ff168160020160099054906101000a900460ff1660ff1614155b156112f55750611464565b8e831015611311578280611308906137ce565b93505050611464565b806040518060e0016040529081600082015481526020016001820160009054906101000a900473ffffffffffffffffffffffffffffffffffffffff1673ffffffffffffffffffffffffffffffffffffffff1673ffffffffffffffffffffffffffffffffffffffff1681526020016001820160149054906101000a900467ffffffffffffffff1667ffffffffffffffff1667ffffffffffffffff1681526020016002820160009054906101000a900467ffffffffffffffff1667ffffffffffffffff1667ffffffffffffffff1681526020016002820160089054906101000a900460ff1660ff1660ff1681526020016002820160099054906101000a900460ff1660ff1660ff16815260200160028201600a9054906101000a900460ff16151515158152505085858151811061144957611448613816565b5b6020026020010181905250838061145f906137ce565b945050505b808061146f906137ce565b9150506111d0565b5050505b808395509550505050509550959350505050565b611497610b05565b156114ce576040517fd93c066500000000000000000000000000000000000000000000000000000000815260040160405180910390fd5b565b600081510361151657806040517fdb5bc9ab00000000000000000000000000000000000000000000000000000000815260040161150d9190613238565b60405180910390fd5b6002606461152491906139af565b815111156115795780516002606461153c91906139af565b6040517f36187ac70000000000000000000000000000000000000000000000000000000081526004016115709291906139f1565b60405180910390fd5b80600760003373ffffffffffffffffffffffffffffffffffffffff1673ffffffffffffffffffffffffffffffffffffffff16815260200190815260200160002090816115c59190613c1c565b506000600560003373ffffffffffffffffffffffffffffffffffffffff1673ffffffffffffffffffffffffffffffffffffffff16815260200190815260200160002060006101000a81548160ff0219169083151502179055503373ffffffffffffffffffffffffffffffffffffffff167f17680f75b3bd6358c599e13674967a6d56ad9c0f29ab0df4850716fafde58cc0826040516116649190613238565b60405180910390a250565b611677612912565b73ffffffffffffffffffffffffffffffffffffffff16611695610c57565b73ffffffffffffffffffffffffffffffffffffffff16146116f4576116b8612912565b6040517f118cdaa70000000000000000000000000000000000000000000000000000000081526004016116eb9190613296565b60405180910390fd5b565b6116fe61291a565b6000600260006101000a81548160ff0219169083151502179055507f5db9ee0a495bf2e6ff9c91a7834c1ba4fdd244a5e8aa4e537bd38aeae4b073aa611742612912565b60405161174f9190613296565b60405180910390a1565b60606000600760008473ffffffffffffffffffffffffffffffffffffffff1673ffffffffffffffffffffffffffffffffffffffff16815260200190815260200160002080546117a790613a49565b80601f01602080910402602001604051908101604052809291908181526020018280546117d390613a49565b80156118205780601f106117f557610100808354040283529160200191611820565b820191906000526020600020905b81548152906001019060200180831161180357829003601f168201915b50505050509050600081510361186d57826040517fe6c01b2d0000000000000000000000000000000000000000000000000000000081526004016118649190613296565b60405180910390fd5b80915050919050565b6002600154036118b2576040517f3ee5aeb500000000000000000000000000000000000000000000000000000000815260040160405180910390fd5b6002600181905550565b60018081905550565b6000600760008373ffffffffffffffffffffffffffffffffffffffff1673ffffffffffffffffffffffffffffffffffffffff168152602001908152602001600020805461191190613a49565b80601f016020809104026020016040519081016040528092919081815260200182805461193d90613a49565b801561198a5780601f1061195f5761010080835404028352916020019161198a565b820191906000526020600020905b81548152906001019060200180831161196d57829003601f168201915b5050505050905060008151036119d757816040517fe6c01b2d0000000000000000000000000000000000000000000000000000000081526004016119ce9190613296565b60405180910390fd5b600760008373ffffffffffffffffffffffffffffffffffffffff1673ffffffffffffffffffffffffffffffffffffffff1681526020019081526020016000206000611a229190612b93565b6001600560008473ffffffffffffffffffffffffffffffffffffffff1673ffffffffffffffffffffffffffffffffffffffff16815260200190815260200160002060006101000a81548160ff0219169083151502179055503373ffffffffffffffffffffffffffffffffffffffff168273ffffffffffffffffffffffffffffffffffffffff167fabdc0d7cb7250994aec27e094d8dacf9f4b1ff5c89f76310c956e5c2c3755a9a60405160405180910390a35050565b60008060009054906101000a900473ffffffffffffffffffffffffffffffffffffffff169050816000806101000a81548173ffffffffffffffffffffffffffffffffffffffff021916908373ffffffffffffffffffffffffffffffffffffffff1602179055508173ffffffffffffffffffffffffffffffffffffffff168173ffffffffffffffffffffffffffffffffffffffff167f8be0079c531659141344cd1fd0a4f28419497f9722a3daafe3b4186f6b6457e060405160405180910390a35050565b611ba461148f565b6001600260006101000a81548160ff0219169083151502179055507f62e78cea01bee320cd4e420270b5ea74000d11b0c9f74754ebdbfc544b05a258611be8612912565b604051611bf59190613296565b60405180910390a1565b6000600760003373ffffffffffffffffffffffffffffffffffffffff1673ffffffffffffffffffffffffffffffffffffffff1681526020019081526020016000208054611c4b90613a49565b80601f0160208091040260200160405190810160405280929190818152602001828054611c7790613a49565b8015611cc45780601f10611c9957610100808354040283529160200191611cc4565b820191906000526020600020905b815481529060010190602001808311611ca757829003601f168201915b505050505090506000815103611d1157336040517fe6c01b2d000000000000000000000000000000000000000000000000000000008152600401611d089190613296565b60405180910390fd5b600760003373ffffffffffffffffffffffffffffffffffffffff1673ffffffffffffffffffffffffffffffffffffffff1681526020019081526020016000206000611d5c9190612b93565b6001600560003373ffffffffffffffffffffffffffffffffffffffff1673ffffffffffffffffffffffffffffffffffffffff16815260200190815260200160002060006101000a81548160ff0219169083151502179055503373ffffffffffffffffffffffffffffffffffffffff163373ffffffffffffffffffffffffffffffffffffffff167fabdc0d7cb7250994aec27e094d8dacf9f4b1ff5c89f76310c956e5c2c3755a9a60405160405180910390a350565b60606000600760003373ffffffffffffffffffffffffffffffffffffffff1673ffffffffffffffffffffffffffffffffffffffff1681526020019081526020016000208054611e5f90613a49565b80601f0160208091040260200160405190810160405280929190818152602001828054611e8b90613a49565b8015611ed85780601f10611ead57610100808354040283529160200191611ed8565b820191906000526020600020905b815481529060010190602001808311611ebb57829003601f168201915b505050505090506000815103611f2557336040517fe6c01b2d000000000000000000000000000000000000000000000000000000008152600401611f1c9190613296565b60405180910390fd5b8091505090565b6000600760008673ffffffffffffffffffffffffffffffffffffffff1673ffffffffffffffffffffffffffffffffffffffff1681526020019081526020016000208054611f7890613a49565b905003611fbc57836040517fe6c01b2d000000000000000000000000000000000000000000000000000000008152600401611fb39190613296565b60405180910390fd5b600560008573ffffffffffffffffffffffffffffffffffffffff1673ffffffffffffffffffffffffffffffffffffffff16815260200190815260200160002060009054906101000a900460ff161561204b57836040517f99004fce0000000000000000000000000000000000000000000000000000000081526004016120429190613296565b60405180910390fd5b600660008573ffffffffffffffffffffffffffffffffffffffff1673ffffffffffffffffffffffffffffffffffffffff16815260200190815260200160002060003373ffffffffffffffffffffffffffffffffffffffff1673ffffffffffffffffffffffffffffffffffffffff16815260200190815260200160002060009054906101000a900460ff16156121195733846040517fd83afbe7000000000000000000000000000000000000000000000000000000008152600401612110929190613cee565b60405180910390fd5b603c600460003373ffffffffffffffffffffffffffffffffffffffff1673ffffffffffffffffffffffffffffffffffffffff168152602001908152602001600020546121659190613d17565b4210156121f65733603c600460003373ffffffffffffffffffffffffffffffffffffffff1673ffffffffffffffffffffffffffffffffffffffff168152602001908152602001600020546121b99190613d17565b6040517fc3ae51f20000000000000000000000000000000000000000000000000000000081526004016121ed929190613d4b565b60405180910390fd5b60006122018461295a565b90506000808467ffffffffffffffff1614612231578367ffffffffffffffff164261222c9190613d17565b612241565b62278d00426122409190613d17565b5b9050600360008773ffffffffffffffffffffffffffffffffffffffff1673ffffffffffffffffffffffffffffffffffffffff1681526020019081526020016000206040518060e001604052808481526020013373ffffffffffffffffffffffffffffffffffffffff1681526020014267ffffffffffffffff1681526020018367ffffffffffffffff168152602001600060ff1681526020018560ff1681526020016000151581525090806001815401808255809150506001900390600052602060002090600302016000909190919091506000820151816000015560208201518160010160006101000a81548173ffffffffffffffffffffffffffffffffffffffff021916908373ffffffffffffffffffffffffffffffffffffffff16021790555060408201518160010160146101000a81548167ffffffffffffffff021916908367ffffffffffffffff16021790555060608201518160020160006101000a81548167ffffffffffffffff021916908367ffffffffffffffff16021790555060808201518160020160086101000a81548160ff021916908360ff16021790555060a08201518160020160096101000a81548160ff021916908360ff16021790555060c082015181600201600a6101000a81548160ff021916908315150217905550505042600460003373ffffffffffffffffffffffffffffffffffffffff1673ffffffffffffffffffffffffffffffffffffffff168152602001908152602001600020819055508573ffffffffffffffffffffffffffffffffffffffff163373ffffffffffffffffffffffffffffffffffffffff167f4ac8868417cb696399fc86eefa527d268b76b4bbe883b6e1a49c24f6a818415d84846040516124c8929190613d92565b60405180910390a3505050505050565b600360003373ffffffffffffffffffffffffffffffffffffffff1673ffffffffffffffffffffffffffffffffffffffff1681526020019081526020016000208054905081106125605733816040517ff380be23000000000000000000000000000000000000000000000000000000008152600401612557929190613d4b565b60405180910390fd5b6000600360003373ffffffffffffffffffffffffffffffffffffffff1673ffffffffffffffffffffffffffffffffffffffff16815260200190815260200160002082815481106125b3576125b2613816565b5b9060005260206000209060030201905080600201600a9054906101000a900460ff16156126195733826040517ff380be23000000000000000000000000000000000000000000000000000000008152600401612610929190613d4b565b60405180910390fd5b600181600201600a6101000a81548160ff021916908315150217905550813373ffffffffffffffffffffffffffffffffffffffff167f636bbf15c0522de78e45a4607aa8708931f7d74979e04f9522da0f86d70093ad60405160405180910390a35050565b600360003373ffffffffffffffffffffffffffffffffffffffff1673ffffffffffffffffffffffffffffffffffffffff1681526020019081526020016000208054905081106127065733816040517ff380be230000000000000000000000000000000000000000000000000000000081526004016126fd929190613d4b565b60405180910390fd5b6000600360003373ffffffffffffffffffffffffffffffffffffffff1673ffffffffffffffffffffffffffffffffffffffff168152602001908152602001600020828154811061275957612758613816565b5b9060005260206000209060030201905080600201600a9054906101000a900460ff16156127bf5733826040517ff380be230000000000000000000000000000000000000000000000000000000081526004016127b6929190613d4b565b60405180910390fd5b60008160020160009054906101000a900467ffffffffffffffff1667ffffffffffffffff161415801561281357508060020160009054906101000a900467ffffffffffffffff1667ffffffffffffffff1642115b1561285557816040517f99c8371000000000000000000000000000000000000000000000000000000000815260040161284c9190612fbf565b60405180910390fd5b60018160020160086101000a81548160ff021916908360ff160217905550813373ffffffffffffffffffffffffffffffffffffffff167f70bc1f79ea6d45d633cbe8fe195f318568ca2b638b02a010b8034180f040270e60405160405180910390a35050565b600080600760008473ffffffffffffffffffffffffffffffffffffffff1673ffffffffffffffffffffffffffffffffffffffff168152602001908152602001600020805461290890613a49565b9050119050919050565b600033905090565b612922610b05565b612958576040517f8dfc202b00000000000000000000000000000000000000000000000000000000815260040160405180910390fd5b565b6000808251036129a157816040517fdb5bc9ab0000000000000000000000000000000000000000000000000000000081526004016129989190613238565b60405180910390fd5b6064825111156129ec57815160646040517f36187ac70000000000000000000000000000000000000000000000000000000081526004016129e39291906139f1565b60405180910390fd5b60008290506002815110158015612a6357507f510000000000000000000000000000000000000000000000000000000000000081600081518110612a3357612a32613816565b5b602001015160f81c60f81b7effffffffffffffffffffffffffffffffffffffffffffffffffffffffffffff191614155b8015612acf57507f6d0000000000000000000000000000000000000000000000000000000000000081600181518110612a9f57612a9e613816565b5b602001015160f81c60f81b7effffffffffffffffffffffffffffffffffffffffffffffffffffffffffffff191614155b15612b1157826040517fdb5bc9ab000000000000000000000000000000000000000000000000000000008152600401612b089190613238565b60405180910390fd5b8280519060200120915050919050565b6040518060e0016040528060008019168152602001600073ffffffffffffffffffffffffffffffffffffffff168152602001600067ffffffffffffffff168152602001600067ffffffffffffffff168152602001600060ff168152602001600060ff1681526020016000151581525090565b508054612b9f90613a49565b6000825580601f10612bb15750612bd0565b601f016020900490600052602060002090810190612bcf9190612bd3565b5b50565b5b80821115612bec576000816000905550600101612bd4565b5090565b600081519050919050565b600082825260208201905092915050565b6000819050602082019050919050565b6000819050919050565b612c2f81612c1c565b82525050565b600073ffffffffffffffffffffffffffffffffffffffff82169050919050565b6000612c6082612c35565b9050919050565b612c7081612c55565b82525050565b600067ffffffffffffffff82169050919050565b612c9381612c76565b82525050565b600060ff82169050919050565b612caf81612c99565b82525050565b60008115159050919050565b612cca81612cb5565b82525050565b60e082016000820151612ce66000850182612c26565b506020820151612cf96020850182612c67565b506040820151612d0c6040850182612c8a565b506060820151612d1f6060850182612c8a565b506080820151612d326080850182612ca6565b5060a0820151612d4560a0850182612ca6565b5060c0820151612d5860c0850182612cc1565b50505050565b6000612d6a8383612cd0565b60e08301905092915050565b6000602082019050919050565b6000612d8e82612bf0565b612d988185612bfb565b9350612da383612c0c565b8060005b83811015612dd4578151612dbb8882612d5e565b9750612dc683612d76565b925050600181019050612da7565b5085935050505092915050565b60006020820190508181036000830152612dfb8184612d83565b905092915050565b6000604051905090565b600080fd5b600080fd5b600080fd5b600080fd5b6000601f19601f8301169050919050565b7f4e487b7100000000000000000000000000000000000000000000000000000000600052604160045260246000fd5b612e6a82612e21565b810181811067ffffffffffffffff82111715612e8957612e88612e32565b5b80604052505050565b6000612e9c612e03565b9050612ea88282612e61565b919050565b600067ffffffffffffffff821115612ec857612ec7612e32565b5b612ed182612e21565b9050602081019050919050565b82818337600083830152505050565b6000612f00612efb84612ead565b612e92565b905082815260208101848484011115612f1c57612f1b612e1c565b5b612f27848285612ede565b509392505050565b600082601f830112612f4457612f43612e17565b5b8135612f54848260208601612eed565b91505092915050565b600060208284031215612f7357612f72612e0d565b5b600082013567ffffffffffffffff811115612f9157612f90612e12565b5b612f9d84828501612f2f565b91505092915050565b6000819050919050565b612fb981612fa6565b82525050565b6000602082019050612fd46000830184612fb0565b92915050565b612fe381612c55565b8114612fee57600080fd5b50565b60008135905061300081612fda565b92915050565b60006020828403121561301c5761301b612e0d565b5b600061302a84828501612ff1565b91505092915050565b61303c81612cb5565b82525050565b60006020820190506130576000830184613033565b92915050565b61306681612fa6565b811461307157600080fd5b50565b6000813590506130838161305d565b92915050565b61309281612cb5565b811461309d57600080fd5b50565b6000813590506130af81613089565b92915050565b6130be81612c99565b81146130c957600080fd5b50565b6000813590506130db816130b5565b92915050565b600080600080600060a086880312156130fd576130fc612e0d565b5b600061310b88828901613074565b955050602061311c88828901613074565b945050604061312d888289016130a0565b935050606061313e888289016130a0565b925050608061314f888289016130cc565b9150509295509295909350565b600060408201905081810360008301526131768185612d83565b90506131856020830184612fb0565b9392505050565b6000602082840312156131a2576131a1612e0d565b5b60006131b084828501613074565b91505092915050565b600081519050919050565b600082825260208201905092915050565b60005b838110156131f35780820151818401526020810190506131d8565b60008484015250505050565b600061320a826131b9565b61321481856131c4565b93506132248185602086016131d5565b61322d81612e21565b840191505092915050565b6000602082019050818103600083015261325281846131ff565b905092915050565b6000602082840312156132705761326f612e0d565b5b600061327e848285016130a0565b91505092915050565b61329081612c55565b82525050565b60006020820190506132ab6000830184613287565b92915050565b6132ba81612c76565b81146132c557600080fd5b50565b6000813590506132d7816132b1565b92915050565b600080600080608085870312156132f7576132f6612e0d565b5b600061330587828801612ff1565b945050602085013567ffffffffffffffff81111561332657613325612e12565b5b61333287828801612f2f565b9350506040613343878288016132c8565b9250506060613354878288016130cc565b91505092959194509250565b6000806040838503121561337757613376612e0d565b5b600061338585828601612ff1565b9250506020613396858286016130a0565b9150509250929050565b600080604083850312156133b7576133b6612e0d565b5b60006133c585828601612ff1565b925050602083013567ffffffffffffffff8111156133e6576133e5612e12565b5b6133f285828601612f2f565b9150509250929050565b6000819050919050565b6000819050919050565b600061342b613426613421846133fc565b613406565b612fa6565b9050919050565b61343b81613410565b82525050565b6000819050919050565b600061346661346161345c84613441565b613406565b612fa6565b9050919050565b6134768161344b565b82525050565b600061349761349261348d846133fc565b613406565b612c99565b9050919050565b6134a78161347c565b82525050565b600060a0820190506134c26000830188613432565b6134cf602083018761346d565b6134dc6040830186613033565b6134e96060830185613033565b6134f6608083018461349e565b9695505050505050565b600067ffffffffffffffff82111561351b5761351a612e32565b5b602082029050602081019050919050565b600080fd5b600080fd5b61353f81612c1c565b811461354a57600080fd5b50565b60008151905061355c81613536565b92915050565b60008151905061357181612fda565b92915050565b600081519050613586816132b1565b92915050565b60008151905061359b816130b5565b92915050565b6000815190506135b081613089565b92915050565b600060e082840312156135cc576135cb613531565b5b6135d660e0612e92565b905060006135e68482850161354d565b60008301525060206135fa84828501613562565b602083015250604061360e84828501613577565b604083015250606061362284828501613577565b60608301525060806136368482850161358c565b60808301525060a061364a8482850161358c565b60a08301525060c061365e848285016135a1565b60c08301525092915050565b600061367d61367884613500565b612e92565b90508083825260208201905060e084028301858111156136a05761369f61352c565b5b835b818110156136c957806136b588826135b6565b84526020840193505060e0810190506136a2565b5050509392505050565b600082601f8301126136e8576136e7612e17565b5b81516136f884826020860161366a565b91505092915050565b6000815190506137108161305d565b92915050565b6000806040838503121561372d5761372c612e0d565b5b600083015167ffffffffffffffff81111561374b5761374a612e12565b5b613757858286016136d3565b925050602061376885828601613701565b9150509250929050565b60006020828403121561378857613787612e0d565b5b6000613796848285016135a1565b91505092915050565b7f4e487b7100000000000000000000000000000000000000000000000000000000600052601160045260246000fd5b60006137d982612fa6565b91507fffffffffffffffffffffffffffffffffffffffffffffffffffffffffffffffff820361380b5761380a61379f565b5b600182019050919050565b7f4e487b7100000000000000000000000000000000000000000000000000000000600052603260045260246000fd5b600061385861385384612ead565b612e92565b90508281526020810184848401111561387457613873612e1c565b5b61387f8482856131d5565b509392505050565b600082601f83011261389c5761389b612e17565b5b81516138ac848260208601613845565b91505092915050565b6000602082840312156138cb576138ca612e0d565b5b600082015167ffffffffffffffff8111156138e9576138e8612e12565b5b6138f584828501613887565b91505092915050565b600061391961391461390f846133fc565b613406565b612c76565b9050919050565b613929816138fe565b82525050565b60006080820190506139446000830187613287565b818103602083015261395681866131ff565b90506139656040830185613920565b613972606083018461349e565b95945050505050565b600061398682612fa6565b915061399183612fa6565b92508282039050818111156139a9576139a861379f565b5b92915050565b60006139ba82612fa6565b91506139c583612fa6565b92508282026139d381612fa6565b915082820484148315176139ea576139e961379f565b5b5092915050565b6000604082019050613a066000830185612fb0565b613a136020830184612fb0565b9392505050565b7f4e487b7100000000000000000000000000000000000000000000000000000000600052602260045260246000fd5b60006002820490506001821680613a6157607f821691505b602082108103613a7457613a73613a1a565b5b50919050565b60008190508160005260206000209050919050565b60006020601f8301049050919050565b600082821b905092915050565b600060088302613adc7fffffffffffffffffffffffffffffffffffffffffffffffffffffffffffffffff82613a9f565b613ae68683613a9f565b95508019841693508086168417925050509392505050565b6000613b19613b14613b0f84612fa6565b613406565b612fa6565b9050919050565b6000819050919050565b613b3383613afe565b613b47613b3f82613b20565b848454613aac565b825550505050565b600090565b613b5c613b4f565b613b67818484613b2a565b505050565b5b81811015613b8b57613b80600082613b54565b600181019050613b6d565b5050565b601f821115613bd057613ba181613a7a565b613baa84613a8f565b81016020851015613bb9578190505b613bcd613bc585613a8f565b830182613b6c565b50505b505050565b600082821c905092915050565b6000613bf360001984600802613bd5565b1980831691505092915050565b6000613c0c8383613be2565b9150826002028217905092915050565b613c25826131b9565b67ffffffffffffffff811115613c3e57613c3d612e32565b5b613c488254613a49565b613c53828285613b8f565b600060209050601f831160018114613c865760008415613c74578287015190505b613c7e8582613c00565b865550613ce6565b601f198416613c9486613a7a565b60005b82811015613cbc57848901518255600182019150602085019450602081019050613c97565b86831015613cd95784890151613cd5601f891682613be2565b8355505b6001600288020188555050505b505050505050565b6000604082019050613d036000830185613287565b613d106020830184613287565b9392505050565b6000613d2282612fa6565b9150613d2d83612fa6565b9250828201905080821115613d4557613d4461379f565b5b92915050565b6000604082019050613d606000830185613287565b613d6d6020830184612fb0565b9392505050565b613d7d81612c1c565b82525050565b613d8c81612c76565b82525050565b6000604082019050613da76000830185613d74565b613db46020830184613d83565b939250505056fea264697066735822122034de93df9ef1837e9b7d17f128d59daa385312855960eba01e4008e726e3ab7a64736f6c63430008140033",
  "linkReferences": {},
  "deployedLinkReferences": {}
}