{
  "_format": "hh-sol-artifact-1",
  "contractName": "SecretDot",
  "sourceName": "contracts/SecretDot.sol",
  "abi": [
    {
      "inputs": [
        {
          "internalType": "address",
          "name": "user",
          "type": "address"
        }
      ],
      "name": "PubKeyNotFound",
      "type": "error"
    },
    {
      "anonymous": false,
      "inputs": [
        {
          "indexed": true,
          "internalType": "address",
          "name": "sender",
          "type": "address"
        },
        {
          "indexed": true,
          "internalType": "address",
          "name": "recipient",
          "type": "address"
        },
        {
          "indexed": false,
          "internalType": "string",
          "name": "ipfsHash",
          "type": "string"
        }
      ],
      "name": "MessageSent",
      "type": "event"
    },
    {
      "anonymous": false,
      "inputs": [
        {
          "indexed": true,
          "internalType": "address",
          "name": "user",
          "type": "address"
        },
        {
          "indexed": false,
          "internalType": "string",
          "name": "pubKey",
          "type": "string"
        }
      ],
      "name": "PubKeyRegistered",
      "type": "event"
    },
    {
      "inputs": [],
      "name": "GetMyMessages",
      "outputs": [
        {
          "components": [
            {
              "internalType": "string",
              "name": "ipfsHash",
              "type": "string"
            },
            {
              "internalType": "address",
              "name": "sender",
              "type": "address"
            },
            {
              "internalType": "uint256",
              "name": "timestamp",
              "type": "uint256"
            }
          ],
          "internalType": "struct SecretDot.Message[]",
          "name": "",
          "type": "tuple[]"
        }
      ],
      "stateMutability": "view",
      "type": "function"
    },
    {
      "inputs": [],
      "name": "GetMyPubKey",
      "outputs": [
        {
          "internalType": "string",
          "name": "pubkey",
          "type": "string"
        }
      ],
      "stateMutability": "view",
      "type": "function"
    },
    {
      "inputs": [
        {
          "internalType": "address",
          "name": "userAddress",
          "type": "address"
        }
      ],
      "name": "GetUserPubKey",
      "outputs": [
        {
          "internalType": "string",
          "name": "pubkey",
          "type": "string"
        }
      ],
      "stateMutability": "view",
      "type": "function"
    },
    {
      "inputs": [
        {
          "internalType": "address",
          "name": "userAddress",
          "type": "address"
        }
      ],
      "name": "HasRegisteredPubKey",
      "outputs": [
        {
          "internalType": "bool",
          "name": "",
          "type": "bool"
        }
      ],
      "stateMutability": "view",
      "type": "function"
    },
    {
      "inputs": [
        {
          "internalType": "string",
          "name": "pubkey",
          "type": "string"
        }
      ],
      "name": "RegisterUserPubKey",
      "outputs": [],
      "stateMutability": "nonpayable",
      "type": "function"
    },
    {
      "inputs": [
        {
          "internalType": "address",
          "name": "recipient",
          "type": "address"
        },
        {
          "internalType": "string",
          "name": "ipfsHash",
          "type": "string"
        }
      ],
      "name": "SendMessage",
      "outputs": [],
      "stateMutability": "nonpayable",
      "type": "function"
    }
  ],
  "bytecode": "0x608060405234801561001057600080fd5b506111fe806100206000396000f3fe608060405234801561001057600080fd5b50600436106100625760003560e01c806302faf01b146100675780630ccee584146100855780632a307759146100a15780638251931e146100d1578063d088db40146100ef578063d11d885b1461010b575b600080fd5b61006f61013b565b60405161007c9190610a71565b60405180910390f35b61009f600480360381019061009a9190610bdc565b6102c8565b005b6100bb60048036038101906100b69190610c51565b6103aa565b6040516100c89190610c99565b60405180910390f35b6100d9610401565b6040516100e69190610cfe565b60405180910390f35b61010960048036038101906101049190610d20565b61051c565b005b61012560048036038101906101209190610c51565b610758565b6040516101329190610cfe565b60405180910390f35b60606000803373ffffffffffffffffffffffffffffffffffffffff1673ffffffffffffffffffffffffffffffffffffffff168152602001908152602001600020805480602002602001604051908101604052809291908181526020016000905b828210156102bf57838290600052602060002090600302016040518060600160405290816000820180546101ce90610dab565b80601f01602080910402602001604051908101604052809291908181526020018280546101fa90610dab565b80156102475780601f1061021c57610100808354040283529160200191610247565b820191906000526020600020905b81548152906001019060200180831161022a57829003601f168201915b505050505081526020016001820160009054906101000a900473ffffffffffffffffffffffffffffffffffffffff1673ffffffffffffffffffffffffffffffffffffffff1673ffffffffffffffffffffffffffffffffffffffff1681526020016002820154815250508152602001906001019061019b565b50505050905090565b600081511161030c576040517f08c379a000000000000000000000000000000000000000000000000000000000815260040161030390610e28565b60405180910390fd5b80600160003373ffffffffffffffffffffffffffffffffffffffff1673ffffffffffffffffffffffffffffffffffffffff16815260200190815260200160002090816103589190610ff4565b503373ffffffffffffffffffffffffffffffffffffffff167f17680f75b3bd6358c599e13674967a6d56ad9c0f29ab0df4850716fafde58cc08260405161039f9190610cfe565b60405180910390a250565b600080600160008473ffffffffffffffffffffffffffffffffffffffff1673ffffffffffffffffffffffffffffffffffffffff16815260200190815260200160002080546103f790610dab565b9050119050919050565b60606000600160003373ffffffffffffffffffffffffffffffffffffffff1673ffffffffffffffffffffffffffffffffffffffff168152602001908152602001600020805461044f90610dab565b80601f016020809104026020016040519081016040528092919081815260200182805461047b90610dab565b80156104c85780601f1061049d576101008083540402835291602001916104c8565b820191906000526020600020905b8154815290600101906020018083116104ab57829003601f168201915b50505050509050600081510361051557336040517f2034979400000000000000000000000000000000000000000000000000000000815260040161050c91906110d5565b60405180910390fd5b8091505090565b6000600160008473ffffffffffffffffffffffffffffffffffffffff1673ffffffffffffffffffffffffffffffffffffffff168152602001908152602001600020805461056890610dab565b9050116105aa576040517f08c379a00000000000000000000000000000000000000000000000000000000081526004016105a19061113c565b60405180910390fd5b60008151116105ee576040517f08c379a00000000000000000000000000000000000000000000000000000000081526004016105e5906111a8565b60405180910390fd5b6000808373ffffffffffffffffffffffffffffffffffffffff1673ffffffffffffffffffffffffffffffffffffffff16815260200190815260200160002060405180606001604052808381526020013373ffffffffffffffffffffffffffffffffffffffff168152602001428152509080600181540180825580915050600190039060005260206000209060030201600090919091909150600082015181600001908161069b9190610ff4565b5060208201518160010160006101000a81548173ffffffffffffffffffffffffffffffffffffffff021916908373ffffffffffffffffffffffffffffffffffffffff1602179055506040820151816002015550508173ffffffffffffffffffffffffffffffffffffffff163373ffffffffffffffffffffffffffffffffffffffff167fe2cf7446a11cbcd14cd99ea3a1bb77fb7653a64f4064d660140b5100d001e13c8360405161074c9190610cfe565b60405180910390a35050565b60606000600160008473ffffffffffffffffffffffffffffffffffffffff1673ffffffffffffffffffffffffffffffffffffffff16815260200190815260200160002080546107a690610dab565b80601f01602080910402602001604051908101604052809291908181526020018280546107d290610dab565b801561081f5780601f106107f45761010080835404028352916020019161081f565b820191906000526020600020905b81548152906001019060200180831161080257829003601f168201915b50505050509050600081510361086c57826040517f2034979400000000000000000000000000000000000000000000000000000000815260040161086391906110d5565b60405180910390fd5b80915050919050565b600081519050919050565b600082825260208201905092915050565b6000819050602082019050919050565b600081519050919050565b600082825260208201905092915050565b60005b838110156108db5780820151818401526020810190506108c0565b60008484015250505050565b6000601f19601f8301169050919050565b6000610903826108a1565b61090d81856108ac565b935061091d8185602086016108bd565b610926816108e7565b840191505092915050565b600073ffffffffffffffffffffffffffffffffffffffff82169050919050565b600061095c82610931565b9050919050565b61096c81610951565b82525050565b6000819050919050565b61098581610972565b82525050565b600060608301600083015184820360008601526109a882826108f8565b91505060208301516109bd6020860182610963565b5060408301516109d0604086018261097c565b508091505092915050565b60006109e7838361098b565b905092915050565b6000602082019050919050565b6000610a0782610875565b610a118185610880565b935083602082028501610a2385610891565b8060005b85811015610a5f5784840389528151610a4085826109db565b9450610a4b836109ef565b925060208a01995050600181019050610a27565b50829750879550505050505092915050565b60006020820190508181036000830152610a8b81846109fc565b905092915050565b6000604051905090565b600080fd5b600080fd5b600080fd5b600080fd5b7f4e487b7100000000000000000000000000000000000000000000000000000000600052604160045260246000fd5b610ae9826108e7565b810181811067ffffffffffffffff82111715610b0857610b07610ab1565b5b80604052505050565b6000610b1b610a93565b9050610b278282610ae0565b919050565b600067ffffffffffffffff821115610b4757610b46610ab1565b5b610b50826108e7565b9050602081019050919050565b82818337600083830152505050565b6000610b7f610b7a84610b2c565b610b11565b905082815260208101848484011115610b9b57610b9a610aac565b5b610ba6848285610b5d565b509392505050565b600082601f830112610bc357610bc2610aa7565b5b8135610bd3848260208601610b6c565b91505092915050565b600060208284031215610bf257610bf1610a9d565b5b600082013567ffffffffffffffff811115610c1057610c0f610aa2565b5b610c1c84828501610bae565b91505092915050565b610c2e81610951565b8114610c3957600080fd5b50565b600081359050610c4b81610c25565b92915050565b600060208284031215610c6757610c66610a9d565b5b6000610c7584828501610c3c565b91505092915050565b60008115159050919050565b610c9381610c7e565b82525050565b6000602082019050610cae6000830184610c8a565b92915050565b600082825260208201905092915050565b6000610cd0826108a1565b610cda8185610cb4565b9350610cea8185602086016108bd565b610cf3816108e7565b840191505092915050565b60006020820190508181036000830152610d188184610cc5565b905092915050565b60008060408385031215610d3757610d36610a9d565b5b6000610d4585828601610c3c565b925050602083013567ffffffffffffffff811115610d6657610d65610aa2565b5b610d7285828601610bae565b9150509250929050565b7f4e487b7100000000000000000000000000000000000000000000000000000000600052602260045260246000fd5b60006002820490506001821680610dc357607f821691505b602082108103610dd657610dd5610d7c565b5b50919050565b7f5075626c6963206b65792063616e6e6f7420626520656d707479000000000000600082015250565b6000610e12601a83610cb4565b9150610e1d82610ddc565b602082019050919050565b60006020820190508181036000830152610e4181610e05565b9050919050565b60008190508160005260206000209050919050565b60006020601f8301049050919050565b600082821b905092915050565b600060088302610eaa7fffffffffffffffffffffffffffffffffffffffffffffffffffffffffffffffff82610e6d565b610eb48683610e6d565b95508019841693508086168417925050509392505050565b6000819050919050565b6000610ef1610eec610ee784610972565b610ecc565b610972565b9050919050565b6000819050919050565b610f0b83610ed6565b610f1f610f1782610ef8565b848454610e7a565b825550505050565b600090565b610f34610f27565b610f3f818484610f02565b505050565b5b81811015610f6357610f58600082610f2c565b600181019050610f45565b5050565b601f821115610fa857610f7981610e48565b610f8284610e5d565b81016020851015610f91578190505b610fa5610f9d85610e5d565b830182610f44565b50505b505050565b600082821c905092915050565b6000610fcb60001984600802610fad565b1980831691505092915050565b6000610fe48383610fba565b9150826002028217905092915050565b610ffd826108a1565b67ffffffffffffffff81111561101657611015610ab1565b5b6110208254610dab565b61102b828285610f67565b600060209050601f83116001811461105e576000841561104c578287015190505b6110568582610fd8565b8655506110be565b601f19841661106c86610e48565b60005b828110156110945784890151825560018201915060208501945060208101905061106f565b868310156110b157848901516110ad601f891682610fba565b8355505b6001600288020188555050505b505050505050565b6110cf81610951565b82525050565b60006020820190506110ea60008301846110c6565b92915050565b7f526563697069656e74206e6f7420726567697374657265640000000000000000600082015250565b6000611126601883610cb4565b9150611131826110f0565b602082019050919050565b6000602082019050818103600083015261115581611119565b9050919050565b7f4950465320686173682063616e6e6f7420626520656d70747900000000000000600082015250565b6000611192601983610cb4565b915061119d8261115c565b602082019050919050565b600060208201905081810360008301526111c181611185565b905091905056fea264697066735822122017c3f8205a4b6cf7c0e9c7ca83648bd4c3a15527720a8967632aa2cfd2768d1564736f6c63430008130033",
  "linkReferences": {},
  "deployedLinkReferences": {}
}