{
  "_format": "hh-sol-artifact-1",
  "contractName": "SecretDot",
  "sourceName": "contracts/SecretDot.sol",
  "abi": [
    {
      "inputs": [
        {
          "internalType": "address",
          "name": "user",
          "type": "address"
        }
      ],
      "name": "PubKeyNotFound",
      "type": "error"
    },
    {
      "anonymous": false,
      "inputs": [
        {
          "indexed": true,
          "internalType": "address",
          "name": "user",
          "type": "address"
        },
        {
          "indexed": false,
          "internalType": "string",
          "name": "pubKey",
          "type": "string"
        }
      ],
      "name": "PubKeyRegistered",
      "type": "event"
    },
    {
      "inputs": [],
      "name": "GetMyPubKey",
      "outputs": [
        {
          "internalType": "string",
          "name": "pubkey",
          "type": "string"
        }
      ],
      "stateMutability": "view",
      "type": "function"
    },
    {
      "inputs": [
        {
          "internalType": "address",
          "name": "userAddress",
          "type": "address"
        }
      ],
      "name": "GetUserPubKey",
      "outputs": [
        {
          "internalType": "string",
          "name": "pubkey",
          "type": "string"
        }
      ],
      "stateMutability": "view",
      "type": "function"
    },
    {
      "inputs": [
        {
          "internalType": "address",
          "name": "userAddress",
          "type": "address"
        }
      ],
      "name": "HasRegisteredPubKey",
      "outputs": [
        {
          "internalType": "bool",
          "name": "",
          "type": "bool"
        }
      ],
      "stateMutability": "view",
      "type": "function"
    },
    {
      "inputs": [
        {
          "internalType": "string",
          "name": "pubkey",
          "type": "string"
        }
      ],
      "name": "RegisterUserPubKey",
      "outputs": [],
      "stateMutability": "nonpayable",
      "type": "function"
    }
  ],
  "bytecode": "0x608060405234801561001057600080fd5b50610b11806100206000396000f3fe608060405234801561001057600080fd5b506004361061004c5760003560e01c80630ccee584146100515780632a3077591461006d5780638251931e1461009d578063d11d885b146100bb575b600080fd5b61006b600480360381019061006691906105b2565b6100eb565b005b61008760048036038101906100829190610659565b6101cc565b60405161009491906106a1565b60405180910390f35b6100a5610222565b6040516100b2919061073b565b60405180910390f35b6100d560048036038101906100d09190610659565b61033c565b6040516100e2919061073b565b60405180910390f35b600081511161012f576040517f08c379a0000000000000000000000000000000000000000000000000000000008152600401610126906107a9565b60405180910390fd5b806000803373ffffffffffffffffffffffffffffffffffffffff1673ffffffffffffffffffffffffffffffffffffffff168152602001908152602001600020908161017a91906109df565b503373ffffffffffffffffffffffffffffffffffffffff167f17680f75b3bd6358c599e13674967a6d56ad9c0f29ab0df4850716fafde58cc0826040516101c1919061073b565b60405180910390a250565b6000806000808473ffffffffffffffffffffffffffffffffffffffff1673ffffffffffffffffffffffffffffffffffffffff1681526020019081526020016000208054610218906107f8565b9050119050919050565b606060008060003373ffffffffffffffffffffffffffffffffffffffff1673ffffffffffffffffffffffffffffffffffffffff168152602001908152602001600020805461026f906107f8565b80601f016020809104026020016040519081016040528092919081815260200182805461029b906107f8565b80156102e85780601f106102bd576101008083540402835291602001916102e8565b820191906000526020600020905b8154815290600101906020018083116102cb57829003601f168201915b50505050509050600081510361033557336040517f2034979400000000000000000000000000000000000000000000000000000000815260040161032c9190610ac0565b60405180910390fd5b8091505090565b606060008060008473ffffffffffffffffffffffffffffffffffffffff1673ffffffffffffffffffffffffffffffffffffffff1681526020019081526020016000208054610389906107f8565b80601f01602080910402602001604051908101604052809291908181526020018280546103b5906107f8565b80156104025780601f106103d757610100808354040283529160200191610402565b820191906000526020600020905b8154815290600101906020018083116103e557829003601f168201915b50505050509050600081510361044f57826040517f203497940000000000000000000000000000000000000000000000000000000081526004016104469190610ac0565b60405180910390fd5b80915050919050565b6000604051905090565b600080fd5b600080fd5b600080fd5b600080fd5b6000601f19601f8301169050919050565b7f4e487b7100000000000000000000000000000000000000000000000000000000600052604160045260246000fd5b6104bf82610476565b810181811067ffffffffffffffff821117156104de576104dd610487565b5b80604052505050565b60006104f1610458565b90506104fd82826104b6565b919050565b600067ffffffffffffffff82111561051d5761051c610487565b5b61052682610476565b9050602081019050919050565b82818337600083830152505050565b600061055561055084610502565b6104e7565b90508281526020810184848401111561057157610570610471565b5b61057c848285610533565b509392505050565b600082601f8301126105995761059861046c565b5b81356105a9848260208601610542565b91505092915050565b6000602082840312156105c8576105c7610462565b5b600082013567ffffffffffffffff8111156105e6576105e5610467565b5b6105f284828501610584565b91505092915050565b600073ffffffffffffffffffffffffffffffffffffffff82169050919050565b6000610626826105fb565b9050919050565b6106368161061b565b811461064157600080fd5b50565b6000813590506106538161062d565b92915050565b60006020828403121561066f5761066e610462565b5b600061067d84828501610644565b91505092915050565b60008115159050919050565b61069b81610686565b82525050565b60006020820190506106b66000830184610692565b92915050565b600081519050919050565b600082825260208201905092915050565b60005b838110156106f65780820151818401526020810190506106db565b60008484015250505050565b600061070d826106bc565b61071781856106c7565b93506107278185602086016106d8565b61073081610476565b840191505092915050565b600060208201905081810360008301526107558184610702565b905092915050565b7f5075626c6963206b65792063616e6e6f7420626520656d707479000000000000600082015250565b6000610793601a836106c7565b915061079e8261075d565b602082019050919050565b600060208201905081810360008301526107c281610786565b9050919050565b7f4e487b7100000000000000000000000000000000000000000000000000000000600052602260045260246000fd5b6000600282049050600182168061081057607f821691505b602082108103610823576108226107c9565b5b50919050565b60008190508160005260206000209050919050565b60006020601f8301049050919050565b600082821b905092915050565b60006008830261088b7fffffffffffffffffffffffffffffffffffffffffffffffffffffffffffffffff8261084e565b610895868361084e565b95508019841693508086168417925050509392505050565b6000819050919050565b6000819050919050565b60006108dc6108d76108d2846108ad565b6108b7565b6108ad565b9050919050565b6000819050919050565b6108f6836108c1565b61090a610902826108e3565b84845461085b565b825550505050565b600090565b61091f610912565b61092a8184846108ed565b505050565b5b8181101561094e57610943600082610917565b600181019050610930565b5050565b601f8211156109935761096481610829565b61096d8461083e565b8101602085101561097c578190505b6109906109888561083e565b83018261092f565b50505b505050565b600082821c905092915050565b60006109b660001984600802610998565b1980831691505092915050565b60006109cf83836109a5565b9150826002028217905092915050565b6109e8826106bc565b67ffffffffffffffff811115610a0157610a00610487565b5b610a0b82546107f8565b610a16828285610952565b600060209050601f831160018114610a495760008415610a37578287015190505b610a4185826109c3565b865550610aa9565b601f198416610a5786610829565b60005b82811015610a7f57848901518255600182019150602085019450602081019050610a5a565b86831015610a9c5784890151610a98601f8916826109a5565b8355505b6001600288020188555050505b505050505050565b610aba8161061b565b82525050565b6000602082019050610ad56000830184610ab1565b9291505056fea26469706673582212207d3e83b5c606113a99a33511de32a7c359c9149f4065abffd322bb93607a5de664736f6c63430008130033",
  "linkReferences": {},
  "deployedLinkReferences": {}
}